{
  "address": "0x9fE46736679d2D9a65F0992F2272dE9f3c7fa6e0",
  "abi": [
    {
      "inputs": [
        {
          "internalType": "string",
          "name": "name",
          "type": "string"
        },
        {
          "internalType": "string",
          "name": "symbol",
          "type": "string"
        },
        {
          "internalType": "string",
          "name": "imageURL",
          "type": "string"
        },
        {
          "internalType": "address",
          "name": "initialOwner",
          "type": "address"
        }
      ],
      "stateMutability": "nonpayable",
      "type": "constructor"
    },
    {
      "inputs": [],
      "name": "ERC721EnumerableForbiddenBatchMint",
      "type": "error"
    },
    {
      "inputs": [
        {
          "internalType": "address",
          "name": "sender",
          "type": "address"
        },
        {
          "internalType": "uint256",
          "name": "tokenId",
          "type": "uint256"
        },
        {
          "internalType": "address",
          "name": "owner",
          "type": "address"
        }
      ],
      "name": "ERC721IncorrectOwner",
      "type": "error"
    },
    {
      "inputs": [
        {
          "internalType": "address",
          "name": "operator",
          "type": "address"
        },
        {
          "internalType": "uint256",
          "name": "tokenId",
          "type": "uint256"
        }
      ],
      "name": "ERC721InsufficientApproval",
      "type": "error"
    },
    {
      "inputs": [
        {
          "internalType": "address",
          "name": "approver",
          "type": "address"
        }
      ],
      "name": "ERC721InvalidApprover",
      "type": "error"
    },
    {
      "inputs": [
        {
          "internalType": "address",
          "name": "operator",
          "type": "address"
        }
      ],
      "name": "ERC721InvalidOperator",
      "type": "error"
    },
    {
      "inputs": [
        {
          "internalType": "address",
          "name": "owner",
          "type": "address"
        }
      ],
      "name": "ERC721InvalidOwner",
      "type": "error"
    },
    {
      "inputs": [
        {
          "internalType": "address",
          "name": "receiver",
          "type": "address"
        }
      ],
      "name": "ERC721InvalidReceiver",
      "type": "error"
    },
    {
      "inputs": [
        {
          "internalType": "address",
          "name": "sender",
          "type": "address"
        }
      ],
      "name": "ERC721InvalidSender",
      "type": "error"
    },
    {
      "inputs": [
        {
          "internalType": "uint256",
          "name": "tokenId",
          "type": "uint256"
        }
      ],
      "name": "ERC721NonexistentToken",
      "type": "error"
    },
    {
      "inputs": [
        {
          "internalType": "address",
          "name": "owner",
          "type": "address"
        },
        {
          "internalType": "uint256",
          "name": "index",
          "type": "uint256"
        }
      ],
      "name": "ERC721OutOfBoundsIndex",
      "type": "error"
    },
    {
      "inputs": [
        {
          "internalType": "address",
          "name": "owner",
          "type": "address"
        }
      ],
      "name": "OwnableInvalidOwner",
      "type": "error"
    },
    {
      "inputs": [
        {
          "internalType": "address",
          "name": "account",
          "type": "address"
        }
      ],
      "name": "OwnableUnauthorizedAccount",
      "type": "error"
    },
    {
      "anonymous": false,
      "inputs": [
        {
          "indexed": true,
          "internalType": "address",
          "name": "owner",
          "type": "address"
        },
        {
          "indexed": true,
          "internalType": "address",
          "name": "approved",
          "type": "address"
        },
        {
          "indexed": true,
          "internalType": "uint256",
          "name": "tokenId",
          "type": "uint256"
        }
      ],
      "name": "Approval",
      "type": "event"
    },
    {
      "anonymous": false,
      "inputs": [
        {
          "indexed": true,
          "internalType": "address",
          "name": "owner",
          "type": "address"
        },
        {
          "indexed": true,
          "internalType": "address",
          "name": "operator",
          "type": "address"
        },
        {
          "indexed": false,
          "internalType": "bool",
          "name": "approved",
          "type": "bool"
        }
      ],
      "name": "ApprovalForAll",
      "type": "event"
    },
    {
      "anonymous": false,
      "inputs": [
        {
          "indexed": true,
          "internalType": "address",
          "name": "previousOwner",
          "type": "address"
        },
        {
          "indexed": true,
          "internalType": "address",
          "name": "newOwner",
          "type": "address"
        }
      ],
      "name": "OwnershipTransferred",
      "type": "event"
    },
    {
      "anonymous": false,
      "inputs": [
        {
          "indexed": true,
          "internalType": "address",
          "name": "from",
          "type": "address"
        },
        {
          "indexed": true,
          "internalType": "address",
          "name": "to",
          "type": "address"
        },
        {
          "indexed": true,
          "internalType": "uint256",
          "name": "tokenId",
          "type": "uint256"
        }
      ],
      "name": "Transfer",
      "type": "event"
    },
    {
      "inputs": [
        {
          "internalType": "address",
          "name": "to",
          "type": "address"
        },
        {
          "internalType": "uint256",
          "name": "tokenId",
          "type": "uint256"
        }
      ],
      "name": "approve",
      "outputs": [],
      "stateMutability": "nonpayable",
      "type": "function"
    },
    {
      "inputs": [
        {
          "internalType": "address",
          "name": "owner",
          "type": "address"
        }
      ],
      "name": "balanceOf",
      "outputs": [
        {
          "internalType": "uint256",
          "name": "",
          "type": "uint256"
        }
      ],
      "stateMutability": "view",
      "type": "function"
    },
    {
      "inputs": [
        {
          "internalType": "uint256",
          "name": "tokenId",
          "type": "uint256"
        }
      ],
      "name": "burn",
      "outputs": [],
      "stateMutability": "nonpayable",
      "type": "function"
    },
    {
      "inputs": [
        {
          "internalType": "uint256",
          "name": "tokenId",
          "type": "uint256"
        }
      ],
      "name": "getApproved",
      "outputs": [
        {
          "internalType": "address",
          "name": "",
          "type": "address"
        }
      ],
      "stateMutability": "view",
      "type": "function"
    },
    {
      "inputs": [
        {
          "internalType": "address",
          "name": "owner",
          "type": "address"
        },
        {
          "internalType": "address",
          "name": "operator",
          "type": "address"
        }
      ],
      "name": "isApprovedForAll",
      "outputs": [
        {
          "internalType": "bool",
          "name": "",
          "type": "bool"
        }
      ],
      "stateMutability": "view",
      "type": "function"
    },
    {
      "inputs": [],
      "name": "name",
      "outputs": [
        {
          "internalType": "string",
          "name": "",
          "type": "string"
        }
      ],
      "stateMutability": "view",
      "type": "function"
    },
    {
      "inputs": [],
      "name": "owner",
      "outputs": [
        {
          "internalType": "address",
          "name": "",
          "type": "address"
        }
      ],
      "stateMutability": "view",
      "type": "function"
    },
    {
      "inputs": [
        {
          "internalType": "uint256",
          "name": "tokenId",
          "type": "uint256"
        }
      ],
      "name": "ownerOf",
      "outputs": [
        {
          "internalType": "address",
          "name": "",
          "type": "address"
        }
      ],
      "stateMutability": "view",
      "type": "function"
    },
    {
      "inputs": [],
      "name": "renounceOwnership",
      "outputs": [],
      "stateMutability": "nonpayable",
      "type": "function"
    },
    {
      "inputs": [
        {
          "internalType": "address",
          "name": "to",
          "type": "address"
        }
      ],
      "name": "safeMint",
      "outputs": [],
      "stateMutability": "nonpayable",
      "type": "function"
    },
    {
      "inputs": [
        {
          "internalType": "address",
          "name": "from",
          "type": "address"
        },
        {
          "internalType": "address",
          "name": "to",
          "type": "address"
        },
        {
          "internalType": "uint256",
          "name": "tokenId",
          "type": "uint256"
        }
      ],
      "name": "safeTransferFrom",
      "outputs": [],
      "stateMutability": "nonpayable",
      "type": "function"
    },
    {
      "inputs": [
        {
          "internalType": "address",
          "name": "from",
          "type": "address"
        },
        {
          "internalType": "address",
          "name": "to",
          "type": "address"
        },
        {
          "internalType": "uint256",
          "name": "tokenId",
          "type": "uint256"
        },
        {
          "internalType": "bytes",
          "name": "data",
          "type": "bytes"
        }
      ],
      "name": "safeTransferFrom",
      "outputs": [],
      "stateMutability": "nonpayable",
      "type": "function"
    },
    {
      "inputs": [
        {
          "internalType": "address",
          "name": "operator",
          "type": "address"
        },
        {
          "internalType": "bool",
          "name": "approved",
          "type": "bool"
        }
      ],
      "name": "setApprovalForAll",
      "outputs": [],
      "stateMutability": "nonpayable",
      "type": "function"
    },
    {
      "inputs": [
        {
          "internalType": "bytes4",
          "name": "interfaceId",
          "type": "bytes4"
        }
      ],
      "name": "supportsInterface",
      "outputs": [
        {
          "internalType": "bool",
          "name": "",
          "type": "bool"
        }
      ],
      "stateMutability": "view",
      "type": "function"
    },
    {
      "inputs": [],
      "name": "symbol",
      "outputs": [
        {
          "internalType": "string",
          "name": "",
          "type": "string"
        }
      ],
      "stateMutability": "view",
      "type": "function"
    },
    {
      "inputs": [
        {
          "internalType": "uint256",
          "name": "index",
          "type": "uint256"
        }
      ],
      "name": "tokenByIndex",
      "outputs": [
        {
          "internalType": "uint256",
          "name": "",
          "type": "uint256"
        }
      ],
      "stateMutability": "view",
      "type": "function"
    },
    {
      "inputs": [
        {
          "internalType": "address",
          "name": "owner",
          "type": "address"
        },
        {
          "internalType": "uint256",
          "name": "index",
          "type": "uint256"
        }
      ],
      "name": "tokenOfOwnerByIndex",
      "outputs": [
        {
          "internalType": "uint256",
          "name": "",
          "type": "uint256"
        }
      ],
      "stateMutability": "view",
      "type": "function"
    },
    {
      "inputs": [
        {
          "internalType": "uint256",
          "name": "tokenId",
          "type": "uint256"
        }
      ],
      "name": "tokenURI",
      "outputs": [
        {
          "internalType": "string",
          "name": "",
          "type": "string"
        }
      ],
      "stateMutability": "view",
      "type": "function"
    },
    {
      "inputs": [],
      "name": "totalSupply",
      "outputs": [
        {
          "internalType": "uint256",
          "name": "",
          "type": "uint256"
        }
      ],
      "stateMutability": "view",
      "type": "function"
    },
    {
      "inputs": [
        {
          "internalType": "address",
          "name": "from",
          "type": "address"
        },
        {
          "internalType": "address",
          "name": "to",
          "type": "address"
        },
        {
          "internalType": "uint256",
          "name": "tokenId",
          "type": "uint256"
        }
      ],
      "name": "transferFrom",
      "outputs": [],
      "stateMutability": "nonpayable",
      "type": "function"
    },
    {
      "inputs": [
        {
          "internalType": "address",
          "name": "newOwner",
          "type": "address"
        }
      ],
      "name": "transferOwnership",
      "outputs": [],
      "stateMutability": "nonpayable",
      "type": "function"
    }
  ],
  "transactionHash": "0xfb6a043234df8614d8ee97e572d431beb3b0b575f67ffaaae25b2d1511e53133",
  "args": [
    "Bufficorn Castle",
    "BCC",
    "https://ipfs.io/ipfs/QmYBwZzYjCrjUFkEGiRMLRi3P4ztmMc9dp7XhmA1Zaie6j/?",
    "0xf39Fd6e51aad88F6F4ce6aB8827279cffFb92266"
  ],
  "numDeployments": 1,
  "solcInputHash": "fc256dc32144a0d943aa1acc652077ff",
  "bytecode": "0x608060405234801561001057600080fd5b506040516118e73803806118e783398101604081905261002f916101a7565b808484600061003e83826102e6565b50600161004b82826102e6565b5050506001600160a01b03811661007c57604051631e4fbdf760e01b81526000600482015260240160405180910390fd5b6100858161009c565b50600c61009283826102e6565b50505050506103a4565b600a80546001600160a01b038381166001600160a01b0319831681179093556040519116919082907f8be0079c531659141344cd1fd0a4f28419497f9722a3daafe3b4186f6b6457e090600090a35050565b634e487b7160e01b600052604160045260246000fd5b600082601f83011261011557600080fd5b81516001600160401b0381111561012e5761012e6100ee565b604051601f8201601f19908116603f011681016001600160401b038111828210171561015c5761015c6100ee565b60405281815283820160200185101561017457600080fd5b60005b8281101561019357602081860181015183830182015201610177565b506000918101602001919091529392505050565b600080600080608085870312156101bd57600080fd5b84516001600160401b038111156101d357600080fd5b6101df87828801610104565b602087015190955090506001600160401b038111156101fd57600080fd5b61020987828801610104565b604087015190945090506001600160401b0381111561022757600080fd5b61023387828801610104565b606087015190935090506001600160a01b038116811461025257600080fd5b939692955090935050565b600181811c9082168061027157607f821691505b60208210810361029157634e487b7160e01b600052602260045260246000fd5b50919050565b601f8211156102e157806000526020600020601f840160051c810160208510156102be5750805b601f840160051c820191505b818110156102de57600081556001016102ca565b50505b505050565b81516001600160401b038111156102ff576102ff6100ee565b6103138161030d845461025d565b84610297565b6020601f821160018114610347576000831561032f5750848201515b600019600385901b1c1916600184901b1784556102de565b600084815260208120601f198516915b828110156103775787850151825560209485019460019092019101610357565b50848210156103955786840151600019600387901b60f8161c191681555b50505050600190811b01905550565b611534806103b36000396000f3fe608060405234801561001057600080fd5b50600436106101375760003560e01c80634f6ccce7116100b857806395d89b411161007c57806395d89b411461027c578063a22cb46514610284578063b88d4fde14610297578063c87b56dd146102aa578063e985e9c5146102bd578063f2fde38b146102d057600080fd5b80634f6ccce71461022a5780636352211e1461023d57806370a0823114610250578063715018a6146102635780638da5cb5b1461026b57600080fd5b806323b872dd116100ff57806323b872dd146101cb5780632f745c59146101de57806340d097c3146101f157806342842e0e1461020457806342966c681461021757600080fd5b806301ffc9a71461013c57806306fdde0314610164578063081812fc14610179578063095ea7b3146101a457806318160ddd146101b9575b600080fd5b61014f61014a36600461112d565b6102e3565b60405190151581526020015b60405180910390f35b61016c6102f4565b60405161015b919061119a565b61018c6101873660046111ad565b610386565b6040516001600160a01b03909116815260200161015b565b6101b76101b23660046111e2565b6103af565b005b6008545b60405190815260200161015b565b6101b76101d936600461120c565b6103be565b6101bd6101ec3660046111e2565b61044e565b6101b76101ff366004611249565b6104b3565b6101b761021236600461120c565b6104dc565b6101b76102253660046111ad565b6104fc565b6101bd6102383660046111ad565b610508565b61018c61024b3660046111ad565b610561565b6101bd61025e366004611249565b61056c565b6101b76105b4565b600a546001600160a01b031661018c565b61016c6105c8565b6101b7610292366004611264565b6105d7565b6101b76102a53660046112b6565b6105e2565b61016c6102b83660046111ad565b6105f9565b61014f6102cb36600461139a565b610661565b6101b76102de366004611249565b61068f565b60006102ee826106cd565b92915050565b606060008054610303906113cd565b80601f016020809104026020016040519081016040528092919081815260200182805461032f906113cd565b801561037c5780601f106103515761010080835404028352916020019161037c565b820191906000526020600020905b81548152906001019060200180831161035f57829003601f168201915b5050505050905090565b6000610391826106f2565b506000828152600460205260409020546001600160a01b03166102ee565b6103ba82823361072b565b5050565b6001600160a01b0382166103ed57604051633250574960e11b8152600060048201526024015b60405180910390fd5b60006103fa838333610738565b9050836001600160a01b0316816001600160a01b031614610448576040516364283d7b60e01b81526001600160a01b03808616600483015260248201849052821660448201526064016103e4565b50505050565b60006104598361056c565b821061048a5760405163295f44f760e21b81526001600160a01b0384166004820152602481018390526044016103e4565b506001600160a01b03919091166000908152600660209081526040808320938352929052205490565b6104bb61074d565b600b8054600091826104cc8361141d565b9190505590506103ba828261077a565b6104f7838383604051806020016040528060008152506105e2565b505050565b6103ba60008233610738565b600061051360085490565b821061053c5760405163295f44f760e21b815260006004820152602481018390526044016103e4565b6008828154811061054f5761054f611436565b90600052602060002001549050919050565b60006102ee826106f2565b60006001600160a01b038216610598576040516322718ad960e21b8152600060048201526024016103e4565b506001600160a01b031660009081526003602052604090205490565b6105bc61074d565b6105c66000610794565b565b606060018054610303906113cd565b6103ba3383836107e6565b6105ed8484846103be565b61044884848484610885565b6060610604826106f2565b50600061060f6109ae565b9050600081511161062f576040518060200160405280600081525061065a565b80610639846109bd565b60405160200161064a92919061144c565b6040516020818303038152906040525b9392505050565b6001600160a01b03918216600090815260056020908152604080832093909416825291909152205460ff1690565b61069761074d565b6001600160a01b0381166106c157604051631e4fbdf760e01b8152600060048201526024016103e4565b6106ca81610794565b50565b60006001600160e01b0319821663780e9d6360e01b14806102ee57506102ee82610a50565b6000818152600260205260408120546001600160a01b0316806102ee57604051637e27328960e01b8152600481018490526024016103e4565b6104f78383836001610aa0565b6000610745848484610ba6565b949350505050565b600a546001600160a01b031633146105c65760405163118cdaa760e01b81523360048201526024016103e4565b6103ba828260405180602001604052806000815250610c73565b600a80546001600160a01b038381166001600160a01b0319831681179093556040519116919082907f8be0079c531659141344cd1fd0a4f28419497f9722a3daafe3b4186f6b6457e090600090a35050565b6001600160a01b03821661081857604051630b61174360e31b81526001600160a01b03831660048201526024016103e4565b6001600160a01b03838116600081815260056020908152604080832094871680845294825291829020805460ff191686151590811790915591519182527f17307eab39ab6107e8899845ad3d59bd9653f200f220920489ca2b5937696c31910160405180910390a3505050565b6001600160a01b0383163b1561044857604051630a85bd0160e11b81526001600160a01b0384169063150b7a02906108c790339088908790879060040161147b565b6020604051808303816000875af1925050508015610902575060408051601f3d908101601f191682019092526108ff918101906114b8565b60015b61096b573d808015610930576040519150601f19603f3d011682016040523d82523d6000602084013e610935565b606091505b50805160000361096357604051633250574960e11b81526001600160a01b03851660048201526024016103e4565b805181602001fd5b6001600160e01b03198116630a85bd0160e11b146109a757604051633250574960e11b81526001600160a01b03851660048201526024016103e4565b5050505050565b6060600c8054610303906113cd565b606060006109ca83610c8a565b600101905060008167ffffffffffffffff8111156109ea576109ea6112a0565b6040519080825280601f01601f191660200182016040528015610a14576020820181803683370190505b5090508181016020015b600019016f181899199a1a9b1b9c1cb0b131b232b360811b600a86061a8153600a8504945084610a1e57509392505050565b60006001600160e01b031982166380ac58cd60e01b1480610a8157506001600160e01b03198216635b5e139f60e01b145b806102ee57506301ffc9a760e01b6001600160e01b03198316146102ee565b8080610ab457506001600160a01b03821615155b15610b76576000610ac4846106f2565b90506001600160a01b03831615801590610af05750826001600160a01b0316816001600160a01b031614155b8015610b035750610b018184610661565b155b15610b2c5760405163a9fbf51f60e01b81526001600160a01b03841660048201526024016103e4565b8115610b745783856001600160a01b0316826001600160a01b03167f8c5be1e5ebec7d5bd14f71427d1e84f3dd0314c0f7b2291e5b200ac8c7c3b92560405160405180910390a45b505b5050600090815260046020526040902080546001600160a01b0319166001600160a01b0392909216919091179055565b600080610bb4858585610d62565b90506001600160a01b038116610c1157610c0c84600880546000838152600960205260408120829055600182018355919091527ff3f7a9fe364faab93b216da50a3214154f22a0a2b415b23a84c8169e8b636ee30155565b610c34565b846001600160a01b0316816001600160a01b031614610c3457610c348185610e5b565b6001600160a01b038516610c5057610c4b84610eec565b610745565b846001600160a01b0316816001600160a01b031614610745576107458585610f9b565b610c7d8383610feb565b6104f76000848484610885565b60008072184f03e93ff9f4daa797ed6e38ed64bf6a1f0160401b8310610cc95772184f03e93ff9f4daa797ed6e38ed64bf6a1f0160401b830492506040015b6d04ee2d6d415b85acef81000000008310610cf5576d04ee2d6d415b85acef8100000000830492506020015b662386f26fc100008310610d1357662386f26fc10000830492506010015b6305f5e1008310610d2b576305f5e100830492506008015b6127108310610d3f57612710830492506004015b60648310610d51576064830492506002015b600a83106102ee5760010192915050565b6000828152600260205260408120546001600160a01b0390811690831615610d8f57610d8f818486611050565b6001600160a01b03811615610dcd57610dac600085600080610aa0565b6001600160a01b038116600090815260036020526040902080546000190190555b6001600160a01b03851615610dfc576001600160a01b0385166000908152600360205260409020805460010190555b60008481526002602052604080822080546001600160a01b0319166001600160a01b0389811691821790925591518793918516917fddf252ad1be2c89b69c2b068fc378daa952ba7f163c4a11628f55a4df523b3ef91a4949350505050565b6000610e668361056c565b600083815260076020526040902054909150808214610eb9576001600160a01b03841660009081526006602090815260408083208584528252808320548484528184208190558352600790915290208190555b5060009182526007602090815260408084208490556001600160a01b039094168352600681528383209183525290812055565b600854600090610efe906001906114d5565b60008381526009602052604081205460088054939450909284908110610f2657610f26611436565b906000526020600020015490508060088381548110610f4757610f47611436565b6000918252602080832090910192909255828152600990915260408082208490558582528120556008805480610f7f57610f7f6114e8565b6001900381819060005260206000200160009055905550505050565b60006001610fa88461056c565b610fb291906114d5565b6001600160a01b039093166000908152600660209081526040808320868452825280832085905593825260079052919091209190915550565b6001600160a01b03821661101557604051633250574960e11b8152600060048201526024016103e4565b600061102383836000610738565b90506001600160a01b038116156104f7576040516339e3563760e11b8152600060048201526024016103e4565b61105b8383836110b4565b6104f7576001600160a01b03831661108957604051637e27328960e01b8152600481018290526024016103e4565b60405163177e802f60e01b81526001600160a01b0383166004820152602481018290526044016103e4565b60006001600160a01b038316158015906107455750826001600160a01b0316846001600160a01b031614806110ee57506110ee8484610661565b806107455750506000908152600460205260409020546001600160a01b03908116911614919050565b6001600160e01b0319811681146106ca57600080fd5b60006020828403121561113f57600080fd5b813561065a81611117565b60005b8381101561116557818101518382015260200161114d565b50506000910152565b6000815180845261118681602086016020860161114a565b601f01601f19169290920160200192915050565b60208152600061065a602083018461116e565b6000602082840312156111bf57600080fd5b5035919050565b80356001600160a01b03811681146111dd57600080fd5b919050565b600080604083850312156111f557600080fd5b6111fe836111c6565b946020939093013593505050565b60008060006060848603121561122157600080fd5b61122a846111c6565b9250611238602085016111c6565b929592945050506040919091013590565b60006020828403121561125b57600080fd5b61065a826111c6565b6000806040838503121561127757600080fd5b611280836111c6565b91506020830135801515811461129557600080fd5b809150509250929050565b634e487b7160e01b600052604160045260246000fd5b600080600080608085870312156112cc57600080fd5b6112d5856111c6565b93506112e3602086016111c6565b925060408501359150606085013567ffffffffffffffff81111561130657600080fd5b8501601f8101871361131757600080fd5b803567ffffffffffffffff811115611331576113316112a0565b604051601f8201601f19908116603f0116810167ffffffffffffffff81118282101715611360576113606112a0565b60405281815282820160200189101561137857600080fd5b8160208401602083013760006020838301015280935050505092959194509250565b600080604083850312156113ad57600080fd5b6113b6836111c6565b91506113c4602084016111c6565b90509250929050565b600181811c908216806113e157607f821691505b60208210810361140157634e487b7160e01b600052602260045260246000fd5b50919050565b634e487b7160e01b600052601160045260246000fd5b60006001820161142f5761142f611407565b5060010190565b634e487b7160e01b600052603260045260246000fd5b6000835161145e81846020880161114a565b83519083019061147281836020880161114a565b01949350505050565b6001600160a01b03858116825284166020820152604081018390526080606082018190526000906114ae9083018461116e565b9695505050505050565b6000602082840312156114ca57600080fd5b815161065a81611117565b818103818111156102ee576102ee611407565b634e487b7160e01b600052603160045260246000fdfea26469706673582212203b6a779a2634557de491bf8238d169ba3c1b5bdb52112e7d6b54da48d9709c7564736f6c634300081a0033",
  "devdoc": {
    "custom:security-contact": "contacto@netlabs.com.uy",
    "errors": {
      "ERC721EnumerableForbiddenBatchMint()": [
        {
          "details": "Batch mint is not allowed."
        }
      ],
      "ERC721IncorrectOwner(address,uint256,address)": [
        {
          "details": "Indicates an error related to the ownership over a particular token. Used in transfers.",
          "params": {
            "owner": "Address of the current owner of a token.",
            "sender": "Address whose tokens are being transferred.",
            "tokenId": "Identifier number of a token."
          }
        }
      ],
      "ERC721InsufficientApproval(address,uint256)": [
        {
          "details": "Indicates a failure with the `operator`s approval. Used in transfers.",
          "params": {
            "operator": "Address that may be allowed to operate on tokens without being their owner.",
            "tokenId": "Identifier number of a token."
          }
        }
      ],
      "ERC721InvalidApprover(address)": [
        {
          "details": "Indicates a failure with the `approver` of a token to be approved. Used in approvals.",
          "params": {
            "approver": "Address initiating an approval operation."
          }
        }
      ],
      "ERC721InvalidOperator(address)": [
        {
          "details": "Indicates a failure with the `operator` to be approved. Used in approvals.",
          "params": {
            "operator": "Address that may be allowed to operate on tokens without being their owner."
          }
        }
      ],
      "ERC721InvalidOwner(address)": [
        {
          "details": "Indicates that an address can't be an owner. For example, `address(0)` is a forbidden owner in EIP-20. Used in balance queries.",
          "params": {
            "owner": "Address of the current owner of a token."
          }
        }
      ],
      "ERC721InvalidReceiver(address)": [
        {
          "details": "Indicates a failure with the token `receiver`. Used in transfers.",
          "params": {
            "receiver": "Address to which tokens are being transferred."
          }
        }
      ],
      "ERC721InvalidSender(address)": [
        {
          "details": "Indicates a failure with the token `sender`. Used in transfers.",
          "params": {
            "sender": "Address whose tokens are being transferred."
          }
        }
      ],
      "ERC721NonexistentToken(uint256)": [
        {
          "details": "Indicates a `tokenId` whose `owner` is the zero address.",
          "params": {
            "tokenId": "Identifier number of a token."
          }
        }
      ],
      "ERC721OutOfBoundsIndex(address,uint256)": [
        {
          "details": "An `owner`'s token query was out of bounds for `index`. NOTE: The owner being `address(0)` indicates a global out of bounds index."
        }
      ],
      "OwnableInvalidOwner(address)": [
        {
          "details": "The owner is not a valid owner account. (eg. `address(0)`)"
        }
      ],
      "OwnableUnauthorizedAccount(address)": [
        {
          "details": "The caller account is not authorized to perform an operation."
        }
      ]
    },
    "events": {
      "Approval(address,address,uint256)": {
        "details": "Emitted when `owner` enables `approved` to manage the `tokenId` token."
      },
      "ApprovalForAll(address,address,bool)": {
        "details": "Emitted when `owner` enables or disables (`approved`) `operator` to manage all of its assets."
      },
      "Transfer(address,address,uint256)": {
        "details": "Emitted when `tokenId` token is transferred from `from` to `to`."
      }
    },
    "kind": "dev",
    "methods": {
      "approve(address,uint256)": {
        "details": "See {IERC721-approve}."
      },
      "balanceOf(address)": {
        "details": "See {IERC721-balanceOf}."
      },
      "burn(uint256)": {
        "details": "Burns `tokenId`. See {ERC721-_burn}. Requirements: - The caller must own `tokenId` or be an approved operator."
      },
      "getApproved(uint256)": {
        "details": "See {IERC721-getApproved}."
      },
      "isApprovedForAll(address,address)": {
        "details": "See {IERC721-isApprovedForAll}."
      },
      "name()": {
        "details": "See {IERC721Metadata-name}."
      },
      "owner()": {
        "details": "Returns the address of the current owner."
      },
      "ownerOf(uint256)": {
        "details": "See {IERC721-ownerOf}."
      },
      "renounceOwnership()": {
        "details": "Leaves the contract without owner. It will not be possible to call `onlyOwner` functions. Can only be called by the current owner. NOTE: Renouncing ownership will leave the contract without an owner, thereby disabling any functionality that is only available to the owner."
      },
      "safeTransferFrom(address,address,uint256)": {
        "details": "See {IERC721-safeTransferFrom}."
      },
      "safeTransferFrom(address,address,uint256,bytes)": {
        "details": "See {IERC721-safeTransferFrom}."
      },
      "setApprovalForAll(address,bool)": {
        "details": "See {IERC721-setApprovalForAll}."
      },
      "symbol()": {
        "details": "See {IERC721Metadata-symbol}."
      },
      "tokenByIndex(uint256)": {
        "details": "See {IERC721Enumerable-tokenByIndex}."
      },
      "tokenOfOwnerByIndex(address,uint256)": {
        "details": "See {IERC721Enumerable-tokenOfOwnerByIndex}."
      },
      "tokenURI(uint256)": {
        "details": "See {IERC721Metadata-tokenURI}."
      },
      "totalSupply()": {
        "details": "See {IERC721Enumerable-totalSupply}."
      },
      "transferFrom(address,address,uint256)": {
        "details": "See {IERC721-transferFrom}."
      },
      "transferOwnership(address)": {
        "details": "Transfers ownership of the contract to a new account (`newOwner`). Can only be called by the current owner."
      }
    },
    "version": 1
  },
  "userdoc": {
    "kind": "user",
    "methods": {},
    "version": 1
  },
  "storageLayout": {
    "storage": [
      {
        "astId": 317,
        "contract": "contracts/NFT-PoI.sol:NFTPoI",
        "label": "_name",
        "offset": 0,
        "slot": "0",
        "type": "t_string_storage"
      },
      {
        "astId": 319,
        "contract": "contracts/NFT-PoI.sol:NFTPoI",
        "label": "_symbol",
        "offset": 0,
        "slot": "1",
        "type": "t_string_storage"
      },
      {
        "astId": 323,
        "contract": "contracts/NFT-PoI.sol:NFTPoI",
        "label": "_owners",
        "offset": 0,
        "slot": "2",
        "type": "t_mapping(t_uint256,t_address)"
      },
      {
        "astId": 327,
        "contract": "contracts/NFT-PoI.sol:NFTPoI",
        "label": "_balances",
        "offset": 0,
        "slot": "3",
        "type": "t_mapping(t_address,t_uint256)"
      },
      {
        "astId": 331,
        "contract": "contracts/NFT-PoI.sol:NFTPoI",
        "label": "_tokenApprovals",
        "offset": 0,
        "slot": "4",
        "type": "t_mapping(t_uint256,t_address)"
      },
      {
        "astId": 337,
        "contract": "contracts/NFT-PoI.sol:NFTPoI",
        "label": "_operatorApprovals",
        "offset": 0,
        "slot": "5",
        "type": "t_mapping(t_address,t_mapping(t_address,t_bool))"
      },
      {
        "astId": 1476,
        "contract": "contracts/NFT-PoI.sol:NFTPoI",
        "label": "_ownedTokens",
        "offset": 0,
        "slot": "6",
        "type": "t_mapping(t_address,t_mapping(t_uint256,t_uint256))"
      },
      {
        "astId": 1480,
        "contract": "contracts/NFT-PoI.sol:NFTPoI",
        "label": "_ownedTokensIndex",
        "offset": 0,
        "slot": "7",
        "type": "t_mapping(t_uint256,t_uint256)"
      },
      {
        "astId": 1483,
        "contract": "contracts/NFT-PoI.sol:NFTPoI",
        "label": "_allTokens",
        "offset": 0,
        "slot": "8",
        "type": "t_array(t_uint256)dyn_storage"
      },
      {
        "astId": 1487,
        "contract": "contracts/NFT-PoI.sol:NFTPoI",
        "label": "_allTokensIndex",
        "offset": 0,
        "slot": "9",
        "type": "t_mapping(t_uint256,t_uint256)"
      },
      {
        "astId": 8,
        "contract": "contracts/NFT-PoI.sol:NFTPoI",
        "label": "_owner",
        "offset": 0,
        "slot": "10",
        "type": "t_address"
      },
      {
        "astId": 3398,
        "contract": "contracts/NFT-PoI.sol:NFTPoI",
        "label": "_nextTokenId",
        "offset": 0,
        "slot": "11",
        "type": "t_uint256"
      },
      {
        "astId": 3400,
        "contract": "contracts/NFT-PoI.sol:NFTPoI",
        "label": "_imageURL",
        "offset": 0,
        "slot": "12",
        "type": "t_string_storage"
      }
    ],
    "types": {
      "t_address": {
        "encoding": "inplace",
        "label": "address",
        "numberOfBytes": "20"
      },
      "t_array(t_uint256)dyn_storage": {
        "base": "t_uint256",
        "encoding": "dynamic_array",
        "label": "uint256[]",
        "numberOfBytes": "32"
      },
      "t_bool": {
        "encoding": "inplace",
        "label": "bool",
        "numberOfBytes": "1"
      },
      "t_mapping(t_address,t_bool)": {
        "encoding": "mapping",
        "key": "t_address",
        "label": "mapping(address => bool)",
        "numberOfBytes": "32",
        "value": "t_bool"
      },
      "t_mapping(t_address,t_mapping(t_address,t_bool))": {
        "encoding": "mapping",
        "key": "t_address",
        "label": "mapping(address => mapping(address => bool))",
        "numberOfBytes": "32",
        "value": "t_mapping(t_address,t_bool)"
      },
      "t_mapping(t_address,t_mapping(t_uint256,t_uint256))": {
        "encoding": "mapping",
        "key": "t_address",
        "label": "mapping(address => mapping(uint256 => uint256))",
        "numberOfBytes": "32",
        "value": "t_mapping(t_uint256,t_uint256)"
      },
      "t_mapping(t_address,t_uint256)": {
        "encoding": "mapping",
        "key": "t_address",
        "label": "mapping(address => uint256)",
        "numberOfBytes": "32",
        "value": "t_uint256"
      },
      "t_mapping(t_uint256,t_address)": {
        "encoding": "mapping",
        "key": "t_uint256",
        "label": "mapping(uint256 => address)",
        "numberOfBytes": "32",
        "value": "t_address"
      },
      "t_mapping(t_uint256,t_uint256)": {
        "encoding": "mapping",
        "key": "t_uint256",
        "label": "mapping(uint256 => uint256)",
        "numberOfBytes": "32",
        "value": "t_uint256"
      },
      "t_string_storage": {
        "encoding": "bytes",
        "label": "string",
        "numberOfBytes": "32"
      },
      "t_uint256": {
        "encoding": "inplace",
        "label": "uint256",
        "numberOfBytes": "32"
      }
    }
  }
}