{
  "address": "0x62BE94A2Af50Cc39C89493E369098648762fb993",
  "abi": [
    {
      "inputs": [
        {
          "internalType": "address",
          "name": "_trust",
          "type": "address"
        }
      ],
      "stateMutability": "nonpayable",
      "type": "constructor"
    },
    {
      "inputs": [
        {
          "internalType": "address",
          "name": "owner",
          "type": "address"
        }
      ],
      "name": "OwnableInvalidOwner",
      "type": "error"
    },
    {
      "inputs": [
        {
          "internalType": "address",
          "name": "account",
          "type": "address"
        }
      ],
      "name": "OwnableUnauthorizedAccount",
      "type": "error"
    },
    {
      "anonymous": false,
      "inputs": [
        {
          "indexed": true,
          "internalType": "address",
          "name": "previousOwner",
          "type": "address"
        },
        {
          "indexed": true,
          "internalType": "address",
          "name": "newOwner",
          "type": "address"
        }
      ],
      "name": "OwnershipTransferred",
      "type": "event"
    },
    {
      "inputs": [
        {
          "internalType": "string",
          "name": "name",
          "type": "string"
        },
        {
          "internalType": "string",
          "name": "symbol",
          "type": "string"
        },
        {
          "internalType": "uint256",
          "name": "maxTokens",
          "type": "uint256"
        },
        {
          "internalType": "uint256",
          "name": "initialPrice",
          "type": "uint256"
        },
        {
          "internalType": "uint256",
          "name": "dueDate",
          "type": "uint256"
        },
        {
          "internalType": "uint256",
          "name": "expectedROI",
          "type": "uint256"
        },
        {
          "internalType": "uint256",
          "name": "earlyWithdrawPenalty",
          "type": "uint256"
        },
        {
          "internalType": "uint256",
          "name": "pctCashReserve",
          "type": "uint256"
        },
        {
          "internalType": "uint256",
          "name": "profitPct",
          "type": "uint256"
        },
        {
          "internalType": "string",
          "name": "imageUrl",
          "type": "string"
        }
      ],
      "name": "createToken",
      "outputs": [],
      "stateMutability": "nonpayable",
      "type": "function"
    },
    {
      "inputs": [],
      "name": "getTokens",
      "outputs": [
        {
          "internalType": "contract RWF_Trust[]",
          "name": "",
          "type": "address[]"
        }
      ],
      "stateMutability": "view",
      "type": "function"
    },
    {
      "inputs": [],
      "name": "owner",
      "outputs": [
        {
          "internalType": "address",
          "name": "",
          "type": "address"
        }
      ],
      "stateMutability": "view",
      "type": "function"
    },
    {
      "inputs": [],
      "name": "renounceOwnership",
      "outputs": [],
      "stateMutability": "nonpayable",
      "type": "function"
    },
    {
      "inputs": [
        {
          "internalType": "address",
          "name": "newOwner",
          "type": "address"
        }
      ],
      "name": "transferOwnership",
      "outputs": [],
      "stateMutability": "nonpayable",
      "type": "function"
    }
  ],
  "transactionHash": "0x33d8acda907cbe841e02ecc7d3eae179944a768b91ec35df50617a96dda7a9fb",
  "args": [
    "0xb20Ae59C0ACfb66d2E866c3f55361b9683337A33"
  ],
  "numDeployments": 4,
  "solcInputHash": "2e40a73128724818dc0e0648fbdd8903",
  "bytecode": "0x608060405234801561001057600080fd5b5060405161336c38038061336c83398101604081905261002f916100be565b806001600160a01b03811661005e57604051631e4fbdf760e01b81526000600482015260240160405180910390fd5b6100678161006e565b50506100ee565b600080546001600160a01b038381166001600160a01b0319831681178455604051919092169283917f8be0079c531659141344cd1fd0a4f28419497f9722a3daafe3b4186f6b6457e09190a35050565b6000602082840312156100d057600080fd5b81516001600160a01b03811681146100e757600080fd5b9392505050565b61326f806100fd6000396000f3fe60806040523480156200001157600080fd5b50600436106200005e5760003560e01c806318b0bbef1462000063578063715018a6146200007c5780638da5cb5b1462000086578063aa6ca80814620000a6578063f2fde38b14620000bf575b600080fd5b6200007a6200007436600462000387565b620000d6565b005b6200007a6200018b565b6000546040516001600160a01b0390911681526020015b60405180910390f35b620000b0620001a3565b6040516200009d91906200045f565b6200007a620000d0366004620004ae565b62000207565b620000e06200024f565b60008a8a8a8a8a8a8a8a308b8b604051620000fb90620002ce565b620001119b9a9998979695949392919062000528565b604051809103906000f0801580156200012e573d6000803e3d6000fd5b506001805480820182556000919091527fb10e2d527612073b26eecdfd717e6a320cf44b4afac2b0732d9fcbe2b7fa0cf60180546001600160a01b0319166001600160a01b03929092169190911790555050505050505050505050565b620001956200024f565b620001a160006200027e565b565b60606001805480602002602001604051908101604052809291908181526020018280548015620001fd57602002820191906000526020600020905b81546001600160a01b03168152600190910190602001808311620001de575b5050505050905090565b620002116200024f565b6001600160a01b0381166200024157604051631e4fbdf760e01b8152600060048201526024015b60405180910390fd5b6200024c816200027e565b50565b6000546001600160a01b03163314620001a15760405163118cdaa760e01b815233600482015260240162000238565b600080546001600160a01b038381166001600160a01b0319831681178455604051919092169283917f8be0079c531659141344cd1fd0a4f28419497f9722a3daafe3b4186f6b6457e09190a35050565b612c8280620005b883390190565b634e487b7160e01b600052604160045260246000fd5b600082601f8301126200030457600080fd5b813567ffffffffffffffff80821115620003225762000322620002dc565b604051601f8301601f19908116603f011681019082821181831017156200034d576200034d620002dc565b816040528381528660208588010111156200036757600080fd5b836020870160208301376000602085830101528094505050505092915050565b6000806000806000806000806000806101408b8d031215620003a857600080fd5b8a3567ffffffffffffffff80821115620003c157600080fd5b620003cf8e838f01620002f2565b9b5060208d0135915080821115620003e657600080fd5b620003f48e838f01620002f2565b9a5060408d0135995060608d0135985060808d0135975060a08d0135965060c08d0135955060e08d013594506101008d013593506101208d01359150808211156200043e57600080fd5b506200044d8d828e01620002f2565b9150509295989b9194979a5092959850565b6020808252825182820181905260009190848201906040850190845b81811015620004a25783516001600160a01b0316835292840192918401916001016200047b565b50909695505050505050565b600060208284031215620004c157600080fd5b81356001600160a01b0381168114620004d957600080fd5b9392505050565b6000815180845260005b818110156200050857602081850181015186830182015201620004ea565b506000602082860101526020601f19601f83011685010191505092915050565b60006101608083526200053e8184018f620004e0565b9050828103602084015262000554818e620004e0565b90508b60408401528a60608401528960808401528860a08401528760c08401528660e084015260018060a01b03861661010084015284610120840152828103610140840152620005a58185620004e0565b9e9d505050505050505050505050505056fe61016060405260146011553480156200001757600080fd5b5060405162002c8238038062002c828339810160408190526200003a91620003b6565b828b80604051806040016040528060018152602001603160f81b8152508e8e81600390816200006a91906200053f565b5060046200007982826200053f565b506200008b91508390506005620001be565b610120526200009c816006620001be565b61014052815160208084019190912060e052815190820120610100524660a0526200012a60e05161010051604080517f8b73c3c69bb8fe3d512ecc4cf759cc79239f7b179b0ffacaa9a75d522b39400f60208201529081019290925260608201524660808201523060a082015260009060c00160405160208183030381529060405280519060200120905090565b60805250503060c052506001600160a01b0381166200016457604051631e4fbdf760e01b8152600060048201526024015b60405180910390fd5b6200016f81620001f7565b506009899055600a889055620001858862000249565b600c879055600d869055600e859055600f84905560108290556013620001ac82826200053f565b50505050505050505050505062000665565b6000602083511015620001de57620001d68362000258565b9050620001f1565b81620001eb84826200053f565b5060ff90505b92915050565b600880546001600160a01b038381166001600160a01b0319831681179093556040519116919082907f8be0079c531659141344cd1fd0a4f28419497f9722a3daafe3b4186f6b6457e090600090a35050565b620002536200029b565b600b55565b600080829050601f8151111562000286578260405163305a27a960e01b81526004016200015b91906200060b565b8051620002938262000640565b179392505050565b6008546001600160a01b03163314620002ca5760405163118cdaa760e01b81523360048201526024016200015b565b565b634e487b7160e01b600052604160045260246000fd5b60005b83811015620002ff578181015183820152602001620002e5565b50506000910152565b600082601f8301126200031a57600080fd5b81516001600160401b0380821115620003375762000337620002cc565b604051601f8301601f19908116603f01168101908282118183101715620003625762000362620002cc565b816040528381528660208588010111156200037c57600080fd5b6200038f846020830160208901620002e2565b9695505050505050565b80516001600160a01b0381168114620003b157600080fd5b919050565b60008060008060008060008060008060006101608c8e031215620003d957600080fd5b8b516001600160401b03811115620003f057600080fd5b620003fe8e828f0162000308565b60208e0151909c5090506001600160401b038111156200041d57600080fd5b6200042b8e828f0162000308565b9a505060408c0151985060608c0151975060808c0151965060a08c0151955060c08c0151945060e08c01519350620004676101008d0162000399565b6101208d01516101408e015191945092506001600160401b038111156200048d57600080fd5b6200049b8e828f0162000308565b9150509295989b509295989b9093969950565b600181811c90821680620004c357607f821691505b602082108103620004e457634e487b7160e01b600052602260045260246000fd5b50919050565b601f8211156200053a576000816000526020600020601f850160051c81016020861015620005155750805b601f850160051c820191505b81811015620005365782815560010162000521565b5050505b505050565b81516001600160401b038111156200055b576200055b620002cc565b62000573816200056c8454620004ae565b84620004ea565b602080601f831160018114620005ab5760008415620005925750858301515b600019600386901b1c1916600185901b17855562000536565b600085815260208120601f198616915b82811015620005dc57888601518255948401946001909101908401620005bb565b5085821015620005fb5787850151600019600388901b60f8161c191681555b5050505050600190811b01905550565b60208152600082518060208401526200062c816040850160208701620002e2565b601f01601f19169190910160400192915050565b80516020808301519190811015620004e45760001960209190910360031b1b16919050565b60805160a05160c05160e0516101005161012051610140516125c2620006c06000396000611624015260006115f7015260006111e1015260006111b9015260006111140152600061113e0152600061116801526125c26000f3fe6080604052600436106101e35760003560e01c806391b7f5ed11610102578063d505accf11610095578063de30c3b811610064578063de30c3b814610536578063e35568cb1461054b578063e4849b3214610560578063f2fde38b1461058057600080fd5b8063d505accf1461049b578063d864b847146104bb578063da31d640146104d0578063dd62ed3e146104f057600080fd5b8063a6f2ae3a116100d1578063a6f2ae3a14610435578063a9059cbb1461043d578063b8959a8b1461045d578063d13830661461047b57600080fd5b806391b7f5ed146103cb57806395d89b41146103eb57806398d5fdca14610400578063a5d8b6501461041557600080fd5b8063636f7def1161017a5780637a5b4f59116101495780637a5b4f591461033c5780637ecebe001461035157806384b0196e146103715780638da5cb5b1461039957600080fd5b8063636f7def146102ea57806370a08231146102f2578063715018a61461031257806379a95c701461032757600080fd5b806323b872dd116101b657806323b872dd146102775780632e1a7d4d14610297578063313ce567146102b95780633644e515146102d557600080fd5b806306fdde03146101e8578063095ea7b3146102135780631183577a1461024357806318160ddd14610262575b600080fd5b3480156101f457600080fd5b506101fd6105a0565b60405161020a9190611ede565b60405180910390f35b34801561021f57600080fd5b5061023361022e366004611f14565b610632565b604051901515815260200161020a565b34801561024f57600080fd5b50600e545b60405190815260200161020a565b34801561026e57600080fd5b50600254610254565b34801561028357600080fd5b50610233610292366004611f3e565b61064c565b3480156102a357600080fd5b506102b76102b2366004611f7a565b610670565b005b3480156102c557600080fd5b506040516000815260200161020a565b3480156102e157600080fd5b50610254610700565b6102b761070f565b3480156102fe57600080fd5b5061025461030d366004611f93565b6108ee565b34801561031e57600080fd5b506102b7610909565b34801561033357600080fd5b50601154610254565b34801561034857600080fd5b506101fd61091d565b34801561035d57600080fd5b5061025461036c366004611f93565b6109ab565b34801561037d57600080fd5b506103866109c9565b60405161020a9796959493929190611fae565b3480156103a557600080fd5b506008546001600160a01b03165b6040516001600160a01b03909116815260200161020a565b3480156103d757600080fd5b506102b76103e6366004611f7a565b610a0f565b3480156103f757600080fd5b506101fd610a1c565b34801561040c57600080fd5b50600b54610254565b34801561042157600080fd5b506102b7610430366004611f7a565b610a2b565b6102b7610a38565b34801561044957600080fd5b50610233610458366004611f14565b610dfb565b34801561046957600080fd5b506014546001600160a01b03166103b3565b34801561048757600080fd5b506102b761049636600461205d565b610e09565b3480156104a757600080fd5b506102b76104b636600461210e565b610e1d565b3480156104c757600080fd5b506101fd610f57565b3480156104dc57600080fd5b506102b76104eb366004611f93565b610f66565b3480156104fc57600080fd5b5061025461050b366004612181565b6001600160a01b03918216600090815260016020908152604080832093909416825291909152205490565b34801561054257600080fd5b50600c54610254565b34801561055757600080fd5b50610254610f90565b34801561056c57600080fd5b506102b761057b366004611f7a565b610fa8565b34801561058c57600080fd5b506102b761059b366004611f93565b610fb5565b6060600380546105af906121b4565b80601f01602080910402602001604051908101604052809291908181526020018280546105db906121b4565b80156106285780601f106105fd57610100808354040283529160200191610628565b820191906000526020600020905b81548152906001019060200180831161060b57829003601f168201915b5050505050905090565b600033610640818585610ff0565b60019150505b92915050565b60003361065a858285610ffd565b61066585858561107b565b506001949350505050565b6106786110da565b804710156106c25760405162461bcd60e51b8152602060048201526012602482015271496e73756666696369656e742066756e647360701b60448201526064015b60405180910390fd5b6008546040516001600160a01b039091169082156108fc029083906000818181858888f193505050501580156106fc573d6000803e3d6000fd5b5050565b600061070a611107565b905090565b6107176110da565b600068b4ceb975c5301b0000600b546002546107339190612204565b61074590670de0b6b3a7640000612204565b61074f919061221b565b9050600068056bc75e2d631000008260105468056bc75e2d63100000610775919061223d565b61077f9190612204565b610789919061221b565b9050600c5442116108025760405162461bcd60e51b815260206004820152603d60248201527f596f75206e65656420746f207761697420756e74696c2074686520647565206460448201527f61746520746f20657863656375746520746869732066756e6374696f6e00000060648201526084016106b9565b804710156108695760405162461bcd60e51b815260206004820152602e60248201527f4e6f7420656e6f7567682066756e647320746f206578656375746520696e766560448201526d73746d656e742072657475726e7360901b60648201526084016106b9565b60005b60125463ffffffff8216146108e957600060128263ffffffff168154811061089657610896612250565b6000918252602090912001546001600160a01b031690506108b6816108ee565b6000036108c357506108d7565b6108d5816108d0836108ee565b611232565b505b806108e181612266565b91505061086c565b505050565b6001600160a01b031660009081526020819052604090205490565b6109116110da565b61091b60006114f5565b565b606061093061092b600b5490565b611547565b61093c61092b600c5490565b61094861092b600e5490565b61095461092b60115490565b61095f61092b610f90565b6109796109746014546001600160a01b031690565b6115da565b610981610f57565b60405160200161099797969594939291906122a5565b604051602081830303815290604052905090565b6001600160a01b038116600090815260076020526040812054610646565b6000606080600080600060606109dd6115f0565b6109e561161d565b60408051600080825260208201909252600f60f81b9b939a50919850469750309650945092509050565b610a176110da565b600b55565b6060600480546105af906121b4565b610a336110da565b600c55565b6000600b54670de0b6b3a7640000610a509190612204565b610a6368b4ceb975c5301b000034612204565b610a6d919061221b565b905060008111610ad55760405162461bcd60e51b815260206004820152602d60248201527f496e73756666696369656e742045544820616d6f756e7420746f20627579206160448201526c1039b4b733b632903a37b5b2b760991b60648201526084016106b9565b601154610ae1336108ee565b610aeb9083612420565b1015610b5f5760405162461bcd60e51b815260206004820152603b60248201527f496e73756666696369656e742045544820616d6f756e7420746f20627579207460448201527f6865206d696e696d756d20616d6f756e74206f6620746f6b656e73000000000060648201526084016106b9565b610b67610f90565b811115610bcb5760405162461bcd60e51b815260206004820152602c60248201527f496e73756666696369656e7420746f6b656e7320617661696c61626c652c207360448201526b0cadcc840d8cae6e6408aa8960a31b60648201526084016106b9565b600c544210610c1c5760405162461bcd60e51b815260206004820152601860248201527f46756e6420686173206265656e207465726d696e61746564000000000000000060448201526064016106b9565b610c26338261164a565b6008546001600160a01b03166001600160a01b03166108fc68056bc75e2d6310000034600f5468056bc75e2d63100000610c60919061223d565b610c6a9190612204565b610c74919061221b565b6040518115909202916000818181858888f19350505050158015610c9c573d6000803e3d6000fd5b50600068b4ceb975c5301b0000600b54610cb69084612204565b610cc890670de0b6b3a7640000612204565b610cd2919061221b565b610cdc903461223d565b90508015610d1357604051339082156108fc029083906000818181858888f19350505050158015610d11573d6000803e3d6000fd5b505b81610d1d336108ee565b036106fc576014546040513360248201526000916001600160a01b03169060440160408051601f198184030181529181526020820180516001600160e01b03166340d097c360e01b17905251610d739190612433565b6000604051808303816000865af19150503d8060008114610db0576040519150601f19603f3d011682016040523d82523d6000602084013e610db5565b606091505b50509050806108e95760405162461bcd60e51b8152602060048201526012602482015271139195081b5a5b9d1a5b99c819985a5b195960721b60448201526064016106b9565b60003361064081858561107b565b610e116110da565b60136106fc828261249f565b83421115610e415760405163313c898160e11b8152600481018590526024016106b9565b60007f6e71edae12b1b97f4d1f60370fef10105fa2faae0126114a169c64845d6126c9888888610e8e8c6001600160a01b0316600090815260076020526040902080546001810190915590565b6040805160208101969096526001600160a01b0394851690860152929091166060840152608083015260a082015260c0810186905260e0016040516020818303038152906040528051906020012090506000610ee982611680565b90506000610ef9828787876116ad565b9050896001600160a01b0316816001600160a01b031614610f40576040516325c0072360e11b81526001600160a01b0380831660048301528b1660248201526044016106b9565b610f4b8a8a8a610ff0565b50505050505050505050565b6060601380546105af906121b4565b610f6e6110da565b601480546001600160a01b0319166001600160a01b0392909216919091179055565b6000610f9b60025490565b60095461070a919061223d565b610fb23382611232565b50565b610fbd6110da565b6001600160a01b038116610fe757604051631e4fbdf760e01b8152600060048201526024016106b9565b610fb2816114f5565b6108e983838360016116db565b6001600160a01b038381166000908152600160209081526040808320938616835292905220546000198114611075578181101561106657604051637dc7a0d960e11b81526001600160a01b038416600482015260248101829052604481018390526064016106b9565b611075848484840360006116db565b50505050565b6001600160a01b0383166110a557604051634b637e8f60e11b8152600060048201526024016106b9565b6001600160a01b0382166110cf5760405163ec442f0560e01b8152600060048201526024016106b9565b6108e98383836117b0565b6008546001600160a01b0316331461091b5760405163118cdaa760e01b81523360048201526024016106b9565b6000306001600160a01b037f00000000000000000000000000000000000000000000000000000000000000001614801561116057507f000000000000000000000000000000000000000000000000000000000000000046145b1561118a57507f000000000000000000000000000000000000000000000000000000000000000090565b61070a604080517f8b73c3c69bb8fe3d512ecc4cf759cc79239f7b179b0ffacaa9a75d522b39400f60208201527f0000000000000000000000000000000000000000000000000000000000000000918101919091527f000000000000000000000000000000000000000000000000000000000000000060608201524660808201523060a082015260009060c00160405160208183030381529060405280519060200120905090565b600081116112795760405162461bcd60e51b8152602060048201526014602482015273125b9d985b1a59081d1bdad95b88185b5bdd5b9d60621b60448201526064016106b9565b80611283836108ee565b10156112dd5760405162461bcd60e51b815260206004820152602360248201527f496e73756666696369656e7420746f6b656e7320696e20796f75722062616c616044820152626e636560e81b60648201526084016106b9565b6000600c5442101561131b5768056bc75e2d63100000600e54600b54846113049190612204565b61130e9190612204565b611318919061221b565b90505b6000600a54600b5411156113475782600a54600b5461133a919061223d565b6113449190612204565b90505b600068056bc75e2d63100000601054836113619190612204565b61136b919061221b565b905060008184600b548761137f9190612204565b611389919061223d565b611393919061223d565b9050600068b4ceb975c5301b00006113b383670de0b6b3a7640000612204565b6113bd919061221b565b9050804710156114355760405162461bcd60e51b815260206004820152603f60248201527f54686572652773206e6f7420656e6f7567682066756e647320696e207468652060448201527f636f6e747261637420746f20706179207468652062656e65666963696172790060648201526084016106b9565b600081116114ab5760405162461bcd60e51b815260206004820152603d60248201527f54686572652773206e6f7468696e67206c65667420666f7220796f75206d792060448201527f667269656e642c20626574746572206c75636b206e6578742074696d6500000060648201526084016106b9565b6114b5878761183c565b6040516001600160a01b0388169082156108fc029083906000818181858888f193505050501580156114eb573d6000803e3d6000fd5b5050505050505050565b600880546001600160a01b038381166001600160a01b0319831681179093556040519116919082907f8be0079c531659141344cd1fd0a4f28419497f9722a3daafe3b4186f6b6457e090600090a35050565b6060600061155483611872565b600101905060008167ffffffffffffffff81111561157457611574612047565b6040519080825280601f01601f19166020018201604052801561159e576020820181803683370190505b5090508181016020015b600019016f181899199a1a9b1b9c1cb0b131b232b360811b600a86061a8153600a85049450846115a857509392505050565b60606106466001600160a01b038316601461194a565b606061070a7f00000000000000000000000000000000000000000000000000000000000000006005611aca565b606061070a7f00000000000000000000000000000000000000000000000000000000000000006006611aca565b6001600160a01b0382166116745760405163ec442f0560e01b8152600060048201526024016106b9565b6106fc600083836117b0565b600061064661168d611107565b8360405161190160f01b8152600281019290925260228201526042902090565b6000806000806116bf88888888611b75565b9250925092506116cf8282611c44565b50909695505050505050565b6001600160a01b0384166117055760405163e602df0560e01b8152600060048201526024016106b9565b6001600160a01b03831661172f57604051634a1406b160e11b8152600060048201526024016106b9565b6001600160a01b038085166000908152600160209081526040808320938716835292905220829055801561107557826001600160a01b0316846001600160a01b03167f8c5be1e5ebec7d5bd14f71427d1e84f3dd0314c0f7b2291e5b200ac8c7c3b925846040516117a291815260200190565b60405180910390a350505050565b6000806117bc846108ee565b1190506117ca848484611cfd565b6000806117d6856108ee565b119050811580156117e45750805b1561183557601280546001810182556000919091527fbb8a6a4669ba250d26cd7a459eca9d215f8307e33aebe50379bc5a3617ec34440180546001600160a01b0319166001600160a01b0386161790555b5050505050565b6001600160a01b03821661186657604051634b637e8f60e11b8152600060048201526024016106b9565b6106fc826000836117b0565b60008072184f03e93ff9f4daa797ed6e38ed64bf6a1f0160401b83106118b15772184f03e93ff9f4daa797ed6e38ed64bf6a1f0160401b830492506040015b6d04ee2d6d415b85acef810000000083106118dd576d04ee2d6d415b85acef8100000000830492506020015b662386f26fc1000083106118fb57662386f26fc10000830492506010015b6305f5e1008310611913576305f5e100830492506008015b612710831061192757612710830492506004015b60648310611939576064830492506002015b600a83106106465760010192915050565b606082600061195a846002612204565b611965906002612420565b67ffffffffffffffff81111561197d5761197d612047565b6040519080825280601f01601f1916602001820160405280156119a7576020820181803683370190505b509050600360fc1b816000815181106119c2576119c2612250565b60200101906001600160f81b031916908160001a905350600f60fb1b816001815181106119f1576119f1612250565b60200101906001600160f81b031916908160001a9053506000611a15856002612204565b611a20906001612420565b90505b6001811115611a98576f181899199a1a9b1b9c1cb0b131b232b360811b83600f1660108110611a5457611a54612250565b1a60f81b828281518110611a6a57611a6a612250565b60200101906001600160f81b031916908160001a90535060049290921c91611a918161255f565b9050611a23565b508115611ac25760405163e22e27eb60e01b815260048101869052602481018590526044016106b9565b949350505050565b606060ff8314611ae457611add83611e27565b9050610646565b818054611af0906121b4565b80601f0160208091040260200160405190810160405280929190818152602001828054611b1c906121b4565b8015611b695780601f10611b3e57610100808354040283529160200191611b69565b820191906000526020600020905b815481529060010190602001808311611b4c57829003601f168201915b50505050509050610646565b600080807f7fffffffffffffffffffffffffffffff5d576e7357a4501ddfe92f46681b20a0841115611bb05750600091506003905082611c3a565b604080516000808252602082018084528a905260ff891692820192909252606081018790526080810186905260019060a0016020604051602081039080840390855afa158015611c04573d6000803e3d6000fd5b5050604051601f1901519150506001600160a01b038116611c3057506000925060019150829050611c3a565b9250600091508190505b9450945094915050565b6000826003811115611c5857611c58612576565b03611c61575050565b6001826003811115611c7557611c75612576565b03611c935760405163f645eedf60e01b815260040160405180910390fd5b6002826003811115611ca757611ca7612576565b03611cc85760405163fce698f760e01b8152600481018290526024016106b9565b6003826003811115611cdc57611cdc612576565b036106fc576040516335e2f38360e21b8152600481018290526024016106b9565b6001600160a01b038316611d28578060026000828254611d1d9190612420565b90915550611d9a9050565b6001600160a01b03831660009081526020819052604090205481811015611d7b5760405163391434e360e21b81526001600160a01b038516600482015260248101829052604481018390526064016106b9565b6001600160a01b03841660009081526020819052604090209082900390555b6001600160a01b038216611db657600280548290039055611dd5565b6001600160a01b03821660009081526020819052604090208054820190555b816001600160a01b0316836001600160a01b03167fddf252ad1be2c89b69c2b068fc378daa952ba7f163c4a11628f55a4df523b3ef83604051611e1a91815260200190565b60405180910390a3505050565b60606000611e3483611e66565b604080516020808252818301909252919250600091906020820181803683375050509182525060208101929092525090565b600060ff8216601f81111561064657604051632cd44ac360e21b815260040160405180910390fd5b60005b83811015611ea9578181015183820152602001611e91565b50506000910152565b60008151808452611eca816020860160208601611e8e565b601f01601f19169290920160200192915050565b602081526000611ef16020830184611eb2565b9392505050565b80356001600160a01b0381168114611f0f57600080fd5b919050565b60008060408385031215611f2757600080fd5b611f3083611ef8565b946020939093013593505050565b600080600060608486031215611f5357600080fd5b611f5c84611ef8565b9250611f6a60208501611ef8565b9150604084013590509250925092565b600060208284031215611f8c57600080fd5b5035919050565b600060208284031215611fa557600080fd5b611ef182611ef8565b60ff60f81b881681526000602060e06020840152611fcf60e084018a611eb2565b8381036040850152611fe1818a611eb2565b606085018990526001600160a01b038816608086015260a0850187905284810360c08601528551808252602080880193509091019060005b8181101561203557835183529284019291840191600101612019565b50909c9b505050505050505050505050565b634e487b7160e01b600052604160045260246000fd5b60006020828403121561206f57600080fd5b813567ffffffffffffffff8082111561208757600080fd5b818401915084601f83011261209b57600080fd5b8135818111156120ad576120ad612047565b604051601f8201601f19908116603f011681019083821181831017156120d5576120d5612047565b816040528281528760208487010111156120ee57600080fd5b826020860160208301376000928101602001929092525095945050505050565b600080600080600080600060e0888a03121561212957600080fd5b61213288611ef8565b965061214060208901611ef8565b95506040880135945060608801359350608088013560ff8116811461216457600080fd5b9699959850939692959460a0840135945060c09093013592915050565b6000806040838503121561219457600080fd5b61219d83611ef8565b91506121ab60208401611ef8565b90509250929050565b600181811c908216806121c857607f821691505b6020821081036121e857634e487b7160e01b600052602260045260246000fd5b50919050565b634e487b7160e01b600052601160045260246000fd5b8082028115828204841417610646576106466121ee565b60008261223857634e487b7160e01b600052601260045260246000fd5b500490565b81810381811115610646576106466121ee565b634e487b7160e01b600052603260045260246000fd5b600063ffffffff80831681810361227f5761227f6121ee565b6001019392505050565b6000815161229b818560208601611e8e565b9290920192915050565b6a03d8511383934b1b2911d160ad1b815260006122c5600b83018a612289565b61160560f11b815260026122e88183016a011323ab2a230ba32911d160ad1b9052565b6122f5600d83018b612289565b61160560f11b815291507f226561726c79576974686472617750656e616c7479223a20000000000000000082820152612331601a83018a612289565b61160560f11b815291507101136b4b727bbb732b22a37b5b2b739911d160751b828201526123626014830189612289565b61160560f11b815291507201130bb30b4b630b13632aa37b5b2b739911d1606d1b828201526123946015830188612289565b61160560f11b815291507f226e6674436f6e747261637441646472657373223a2022000000000000000000828201526123d06019830187612289565b6211160560e91b815291506a1134b6b3aab936111d101160a91b60038301526123fc600e830186612289565b61110560f11b81529150607d60f81b82820152506003019998505050505050505050565b80820180821115610646576106466121ee565b60008251612445818460208701611e8e565b9190910192915050565b601f8211156108e9576000816000526020600020601f850160051c810160208610156124785750805b601f850160051c820191505b8181101561249757828155600101612484565b505050505050565b815167ffffffffffffffff8111156124b9576124b9612047565b6124cd816124c784546121b4565b8461244f565b602080601f83116001811461250257600084156124ea5750858301515b600019600386901b1c1916600185901b178555612497565b600085815260208120601f198616915b8281101561253157888601518255948401946001909101908401612512565b508582101561254f5787850151600019600388901b60f8161c191681555b5050505050600190811b01905550565b60008161256e5761256e6121ee565b506000190190565b634e487b7160e01b600052602160045260246000fdfea2646970667358221220566764808c5607e9a00f9496d9f437df814a74b778a6abd62de36066e35dd4aa64736f6c63430008180033a26469706673582212205e20ccd13a496b21a976b6219c451f35e90c7f4da40bea6cb0e528aa313cf6a364736f6c63430008180033",
  "devdoc": {
    "errors": {
      "OwnableInvalidOwner(address)": [
        {
          "details": "The owner is not a valid owner account. (eg. `address(0)`)"
        }
      ],
      "OwnableUnauthorizedAccount(address)": [
        {
          "details": "The caller account is not authorized to perform an operation."
        }
      ]
    },
    "kind": "dev",
    "methods": {
      "owner()": {
        "details": "Returns the address of the current owner."
      },
      "renounceOwnership()": {
        "details": "Leaves the contract without owner. It will not be possible to call `onlyOwner` functions. Can only be called by the current owner. NOTE: Renouncing ownership will leave the contract without an owner, thereby disabling any functionality that is only available to the owner."
      },
      "transferOwnership(address)": {
        "details": "Transfers ownership of the contract to a new account (`newOwner`). Can only be called by the current owner."
      }
    },
    "version": 1
  },
  "userdoc": {
    "kind": "user",
    "methods": {},
    "version": 1
  },
  "storageLayout": {
    "storage": [
      {
        "astId": 8,
        "contract": "contracts/TokenShopFactory.sol:TokenFactory",
        "label": "_owner",
        "offset": 0,
        "slot": "0",
        "type": "t_address"
      },
      {
        "astId": 5807,
        "contract": "contracts/TokenShopFactory.sol:TokenFactory",
        "label": "tokens",
        "offset": 0,
        "slot": "1",
        "type": "t_array(t_contract(RWF_Trust)5768)dyn_storage"
      }
    ],
    "types": {
      "t_address": {
        "encoding": "inplace",
        "label": "address",
        "numberOfBytes": "20"
      },
      "t_array(t_contract(RWF_Trust)5768)dyn_storage": {
        "base": "t_contract(RWF_Trust)5768",
        "encoding": "dynamic_array",
        "label": "contract RWF_Trust[]",
        "numberOfBytes": "32"
      },
      "t_contract(RWF_Trust)5768": {
        "encoding": "inplace",
        "label": "contract RWF_Trust",
        "numberOfBytes": "20"
      }
    }
  }
}