{
  "_format": "hh-sol-artifact-1",
  "contractName": "RWF_Trust",
  "sourceName": "contracts/TokenShop.sol",
  "abi": [
    {
      "inputs": [
        {
          "internalType": "string",
          "name": "_name",
          "type": "string"
        },
        {
          "internalType": "string",
          "name": "_symbol",
          "type": "string"
        },
        {
          "internalType": "uint256",
          "name": "_maxTokens",
          "type": "uint256"
        },
        {
          "internalType": "uint256",
          "name": "_price",
          "type": "uint256"
        },
        {
          "internalType": "uint256",
          "name": "_dueDate",
          "type": "uint256"
        },
        {
          "internalType": "uint256",
          "name": "_expectedROI",
          "type": "uint256"
        },
        {
          "internalType": "uint256",
          "name": "_earlyWithdrawPenalty",
          "type": "uint256"
        },
        {
          "internalType": "uint256",
          "name": "_pctCashReserve",
          "type": "uint256"
        },
        {
          "internalType": "address",
          "name": "_trust",
          "type": "address"
        },
        {
          "internalType": "uint256",
          "name": "_profitPct",
          "type": "uint256"
        },
        {
          "internalType": "string",
          "name": "_imageURL",
          "type": "string"
        }
      ],
      "stateMutability": "nonpayable",
      "type": "constructor"
    },
    {
      "inputs": [],
      "name": "ECDSAInvalidSignature",
      "type": "error"
    },
    {
      "inputs": [
        {
          "internalType": "uint256",
          "name": "length",
          "type": "uint256"
        }
      ],
      "name": "ECDSAInvalidSignatureLength",
      "type": "error"
    },
    {
      "inputs": [
        {
          "internalType": "bytes32",
          "name": "s",
          "type": "bytes32"
        }
      ],
      "name": "ECDSAInvalidSignatureS",
      "type": "error"
    },
    {
      "inputs": [
        {
          "internalType": "address",
          "name": "spender",
          "type": "address"
        },
        {
          "internalType": "uint256",
          "name": "allowance",
          "type": "uint256"
        },
        {
          "internalType": "uint256",
          "name": "needed",
          "type": "uint256"
        }
      ],
      "name": "ERC20InsufficientAllowance",
      "type": "error"
    },
    {
      "inputs": [
        {
          "internalType": "address",
          "name": "sender",
          "type": "address"
        },
        {
          "internalType": "uint256",
          "name": "balance",
          "type": "uint256"
        },
        {
          "internalType": "uint256",
          "name": "needed",
          "type": "uint256"
        }
      ],
      "name": "ERC20InsufficientBalance",
      "type": "error"
    },
    {
      "inputs": [
        {
          "internalType": "address",
          "name": "approver",
          "type": "address"
        }
      ],
      "name": "ERC20InvalidApprover",
      "type": "error"
    },
    {
      "inputs": [
        {
          "internalType": "address",
          "name": "receiver",
          "type": "address"
        }
      ],
      "name": "ERC20InvalidReceiver",
      "type": "error"
    },
    {
      "inputs": [
        {
          "internalType": "address",
          "name": "sender",
          "type": "address"
        }
      ],
      "name": "ERC20InvalidSender",
      "type": "error"
    },
    {
      "inputs": [
        {
          "internalType": "address",
          "name": "spender",
          "type": "address"
        }
      ],
      "name": "ERC20InvalidSpender",
      "type": "error"
    },
    {
      "inputs": [
        {
          "internalType": "uint256",
          "name": "deadline",
          "type": "uint256"
        }
      ],
      "name": "ERC2612ExpiredSignature",
      "type": "error"
    },
    {
      "inputs": [
        {
          "internalType": "address",
          "name": "signer",
          "type": "address"
        },
        {
          "internalType": "address",
          "name": "owner",
          "type": "address"
        }
      ],
      "name": "ERC2612InvalidSigner",
      "type": "error"
    },
    {
      "inputs": [
        {
          "internalType": "address",
          "name": "account",
          "type": "address"
        },
        {
          "internalType": "uint256",
          "name": "currentNonce",
          "type": "uint256"
        }
      ],
      "name": "InvalidAccountNonce",
      "type": "error"
    },
    {
      "inputs": [],
      "name": "InvalidShortString",
      "type": "error"
    },
    {
      "inputs": [
        {
          "internalType": "address",
          "name": "owner",
          "type": "address"
        }
      ],
      "name": "OwnableInvalidOwner",
      "type": "error"
    },
    {
      "inputs": [
        {
          "internalType": "address",
          "name": "account",
          "type": "address"
        }
      ],
      "name": "OwnableUnauthorizedAccount",
      "type": "error"
    },
    {
      "inputs": [
        {
          "internalType": "string",
          "name": "str",
          "type": "string"
        }
      ],
      "name": "StringTooLong",
      "type": "error"
    },
    {
      "anonymous": false,
      "inputs": [
        {
          "indexed": true,
          "internalType": "address",
          "name": "owner",
          "type": "address"
        },
        {
          "indexed": true,
          "internalType": "address",
          "name": "spender",
          "type": "address"
        },
        {
          "indexed": false,
          "internalType": "uint256",
          "name": "value",
          "type": "uint256"
        }
      ],
      "name": "Approval",
      "type": "event"
    },
    {
      "anonymous": false,
      "inputs": [],
      "name": "EIP712DomainChanged",
      "type": "event"
    },
    {
      "anonymous": false,
      "inputs": [
        {
          "indexed": true,
          "internalType": "address",
          "name": "previousOwner",
          "type": "address"
        },
        {
          "indexed": true,
          "internalType": "address",
          "name": "newOwner",
          "type": "address"
        }
      ],
      "name": "OwnershipTransferred",
      "type": "event"
    },
    {
      "anonymous": false,
      "inputs": [
        {
          "indexed": true,
          "internalType": "address",
          "name": "from",
          "type": "address"
        },
        {
          "indexed": true,
          "internalType": "address",
          "name": "to",
          "type": "address"
        },
        {
          "indexed": false,
          "internalType": "uint256",
          "name": "value",
          "type": "uint256"
        }
      ],
      "name": "Transfer",
      "type": "event"
    },
    {
      "inputs": [],
      "name": "DOMAIN_SEPARATOR",
      "outputs": [
        {
          "internalType": "bytes32",
          "name": "",
          "type": "bytes32"
        }
      ],
      "stateMutability": "view",
      "type": "function"
    },
    {
      "inputs": [
        {
          "internalType": "address",
          "name": "owner",
          "type": "address"
        },
        {
          "internalType": "address",
          "name": "spender",
          "type": "address"
        }
      ],
      "name": "allowance",
      "outputs": [
        {
          "internalType": "uint256",
          "name": "",
          "type": "uint256"
        }
      ],
      "stateMutability": "view",
      "type": "function"
    },
    {
      "inputs": [
        {
          "internalType": "address",
          "name": "spender",
          "type": "address"
        },
        {
          "internalType": "uint256",
          "name": "value",
          "type": "uint256"
        }
      ],
      "name": "approve",
      "outputs": [
        {
          "internalType": "bool",
          "name": "",
          "type": "bool"
        }
      ],
      "stateMutability": "nonpayable",
      "type": "function"
    },
    {
      "inputs": [
        {
          "internalType": "address",
          "name": "account",
          "type": "address"
        }
      ],
      "name": "balanceOf",
      "outputs": [
        {
          "internalType": "uint256",
          "name": "",
          "type": "uint256"
        }
      ],
      "stateMutability": "view",
      "type": "function"
    },
    {
      "inputs": [],
      "name": "buy",
      "outputs": [],
      "stateMutability": "payable",
      "type": "function"
    },
    {
      "inputs": [],
      "name": "decimals",
      "outputs": [
        {
          "internalType": "uint8",
          "name": "",
          "type": "uint8"
        }
      ],
      "stateMutability": "pure",
      "type": "function"
    },
    {
      "inputs": [],
      "name": "eip712Domain",
      "outputs": [
        {
          "internalType": "bytes1",
          "name": "fields",
          "type": "bytes1"
        },
        {
          "internalType": "string",
          "name": "name",
          "type": "string"
        },
        {
          "internalType": "string",
          "name": "version",
          "type": "string"
        },
        {
          "internalType": "uint256",
          "name": "chainId",
          "type": "uint256"
        },
        {
          "internalType": "address",
          "name": "verifyingContract",
          "type": "address"
        },
        {
          "internalType": "bytes32",
          "name": "salt",
          "type": "bytes32"
        },
        {
          "internalType": "uint256[]",
          "name": "extensions",
          "type": "uint256[]"
        }
      ],
      "stateMutability": "view",
      "type": "function"
    },
    {
      "inputs": [],
      "name": "getDueDate",
      "outputs": [
        {
          "internalType": "uint256",
          "name": "",
          "type": "uint256"
        }
      ],
      "stateMutability": "view",
      "type": "function"
    },
    {
      "inputs": [],
      "name": "getImgUrl",
      "outputs": [
        {
          "internalType": "string",
          "name": "",
          "type": "string"
        }
      ],
      "stateMutability": "view",
      "type": "function"
    },
    {
      "inputs": [],
      "name": "getNftContractAddress",
      "outputs": [
        {
          "internalType": "address",
          "name": "",
          "type": "address"
        }
      ],
      "stateMutability": "view",
      "type": "function"
    },
    {
      "inputs": [],
      "name": "getPrice",
      "outputs": [
        {
          "internalType": "uint256",
          "name": "",
          "type": "uint256"
        }
      ],
      "stateMutability": "view",
      "type": "function"
    },
    {
      "inputs": [],
      "name": "investmentExecution",
      "outputs": [],
      "stateMutability": "payable",
      "type": "function"
    },
    {
      "inputs": [],
      "name": "name",
      "outputs": [
        {
          "internalType": "string",
          "name": "",
          "type": "string"
        }
      ],
      "stateMutability": "view",
      "type": "function"
    },
    {
      "inputs": [
        {
          "internalType": "address",
          "name": "owner",
          "type": "address"
        }
      ],
      "name": "nonces",
      "outputs": [
        {
          "internalType": "uint256",
          "name": "",
          "type": "uint256"
        }
      ],
      "stateMutability": "view",
      "type": "function"
    },
    {
      "inputs": [],
      "name": "owner",
      "outputs": [
        {
          "internalType": "address",
          "name": "",
          "type": "address"
        }
      ],
      "stateMutability": "view",
      "type": "function"
    },
    {
      "inputs": [
        {
          "internalType": "address",
          "name": "owner",
          "type": "address"
        },
        {
          "internalType": "address",
          "name": "spender",
          "type": "address"
        },
        {
          "internalType": "uint256",
          "name": "value",
          "type": "uint256"
        },
        {
          "internalType": "uint256",
          "name": "deadline",
          "type": "uint256"
        },
        {
          "internalType": "uint8",
          "name": "v",
          "type": "uint8"
        },
        {
          "internalType": "bytes32",
          "name": "r",
          "type": "bytes32"
        },
        {
          "internalType": "bytes32",
          "name": "s",
          "type": "bytes32"
        }
      ],
      "name": "permit",
      "outputs": [],
      "stateMutability": "nonpayable",
      "type": "function"
    },
    {
      "inputs": [],
      "name": "renounceOwnership",
      "outputs": [],
      "stateMutability": "nonpayable",
      "type": "function"
    },
    {
      "inputs": [
        {
          "internalType": "uint256",
          "name": "tokenAmount",
          "type": "uint256"
        }
      ],
      "name": "sell",
      "outputs": [],
      "stateMutability": "nonpayable",
      "type": "function"
    },
    {
      "inputs": [
        {
          "internalType": "uint256",
          "name": "_dueDate",
          "type": "uint256"
        }
      ],
      "name": "setDueDate",
      "outputs": [],
      "stateMutability": "nonpayable",
      "type": "function"
    },
    {
      "inputs": [
        {
          "internalType": "string",
          "name": "_imgUrl",
          "type": "string"
        }
      ],
      "name": "setImgUrl",
      "outputs": [],
      "stateMutability": "nonpayable",
      "type": "function"
    },
    {
      "inputs": [
        {
          "internalType": "address",
          "name": "_address",
          "type": "address"
        }
      ],
      "name": "setNftContractAddress",
      "outputs": [],
      "stateMutability": "nonpayable",
      "type": "function"
    },
    {
      "inputs": [
        {
          "internalType": "uint256",
          "name": "newPrice",
          "type": "uint256"
        }
      ],
      "name": "setPrice",
      "outputs": [],
      "stateMutability": "nonpayable",
      "type": "function"
    },
    {
      "inputs": [],
      "name": "symbol",
      "outputs": [
        {
          "internalType": "string",
          "name": "",
          "type": "string"
        }
      ],
      "stateMutability": "view",
      "type": "function"
    },
    {
      "inputs": [],
      "name": "totalSupply",
      "outputs": [
        {
          "internalType": "uint256",
          "name": "",
          "type": "uint256"
        }
      ],
      "stateMutability": "view",
      "type": "function"
    },
    {
      "inputs": [
        {
          "internalType": "address",
          "name": "to",
          "type": "address"
        },
        {
          "internalType": "uint256",
          "name": "value",
          "type": "uint256"
        }
      ],
      "name": "transfer",
      "outputs": [
        {
          "internalType": "bool",
          "name": "",
          "type": "bool"
        }
      ],
      "stateMutability": "nonpayable",
      "type": "function"
    },
    {
      "inputs": [
        {
          "internalType": "address",
          "name": "from",
          "type": "address"
        },
        {
          "internalType": "address",
          "name": "to",
          "type": "address"
        },
        {
          "internalType": "uint256",
          "name": "value",
          "type": "uint256"
        }
      ],
      "name": "transferFrom",
      "outputs": [
        {
          "internalType": "bool",
          "name": "",
          "type": "bool"
        }
      ],
      "stateMutability": "nonpayable",
      "type": "function"
    },
    {
      "inputs": [
        {
          "internalType": "address",
          "name": "newOwner",
          "type": "address"
        }
      ],
      "name": "transferOwnership",
      "outputs": [],
      "stateMutability": "nonpayable",
      "type": "function"
    },
    {
      "inputs": [
        {
          "internalType": "uint256",
          "name": "amount",
          "type": "uint256"
        }
      ],
      "name": "withdraw",
      "outputs": [],
      "stateMutability": "nonpayable",
      "type": "function"
    }
  ],
  "bytecode": "0x61016060405260146011553480156200001757600080fd5b50604051620026c0380380620026c08339810160408190526200003a91620003b6565b828b80604051806040016040528060018152602001603160f81b8152508e8e81600390816200006a91906200053f565b5060046200007982826200053f565b506200008b91508390506005620001be565b610120526200009c816006620001be565b61014052815160208084019190912060e052815190820120610100524660a0526200012a60e05161010051604080517f8b73c3c69bb8fe3d512ecc4cf759cc79239f7b179b0ffacaa9a75d522b39400f60208201529081019290925260608201524660808201523060a082015260009060c00160405160208183030381529060405280519060200120905090565b60805250503060c052506001600160a01b0381166200016457604051631e4fbdf760e01b8152600060048201526024015b60405180910390fd5b6200016f81620001f7565b506009899055600a889055620001858862000249565b600c879055600d869055600e859055600f84905560108290556013620001ac82826200053f565b50505050505050505050505062000665565b6000602083511015620001de57620001d68362000258565b9050620001f1565b81620001eb84826200053f565b5060ff90505b92915050565b600880546001600160a01b038381166001600160a01b0319831681179093556040519116919082907f8be0079c531659141344cd1fd0a4f28419497f9722a3daafe3b4186f6b6457e090600090a35050565b620002536200029b565b600b55565b600080829050601f8151111562000286578260405163305a27a960e01b81526004016200015b91906200060b565b8051620002938262000640565b179392505050565b6008546001600160a01b03163314620002ca5760405163118cdaa760e01b81523360048201526024016200015b565b565b634e487b7160e01b600052604160045260246000fd5b60005b83811015620002ff578181015183820152602001620002e5565b50506000910152565b600082601f8301126200031a57600080fd5b81516001600160401b0380821115620003375762000337620002cc565b604051601f8301601f19908116603f01168101908282118183101715620003625762000362620002cc565b816040528381528660208588010111156200037c57600080fd5b6200038f846020830160208901620002e2565b9695505050505050565b80516001600160a01b0381168114620003b157600080fd5b919050565b60008060008060008060008060008060006101608c8e031215620003d957600080fd5b8b516001600160401b03811115620003f057600080fd5b620003fe8e828f0162000308565b60208e0151909c5090506001600160401b038111156200041d57600080fd5b6200042b8e828f0162000308565b9a505060408c0151985060608c0151975060808c0151965060a08c0151955060c08c0151945060e08c01519350620004676101008d0162000399565b6101208d01516101408e015191945092506001600160401b038111156200048d57600080fd5b6200049b8e828f0162000308565b9150509295989b509295989b9093969950565b600181811c90821680620004c357607f821691505b602082108103620004e457634e487b7160e01b600052602260045260246000fd5b50919050565b601f8211156200053a576000816000526020600020601f850160051c81016020861015620005155750805b601f850160051c820191505b81811015620005365782815560010162000521565b5050505b505050565b81516001600160401b038111156200055b576200055b620002cc565b62000573816200056c8454620004ae565b84620004ea565b602080601f831160018114620005ab5760008415620005925750858301515b600019600386901b1c1916600185901b17855562000536565b600085815260208120601f198616915b82811015620005dc57888601518255948401946001909101908401620005bb565b5085821015620005fb5787850151600019600388901b60f8161c191681555b5050505050600190811b01905550565b60208152600082518060208401526200062c816040850160208701620002e2565b601f01601f19169190910160400192915050565b80516020808301519190811015620004e45760001960209190910360031b1b16919050565b60805160a05160c05160e051610100516101205161014051612000620006c060003960006114680152600061143b015260006110ce015260006110a6015260006110010152600061102b0152600061105501526120006000f3fe6080604052600436106101b75760003560e01c806395d89b41116100ec578063d505accf1161008a578063dd62ed3e11610064578063dd62ed3e14610485578063de30c3b8146104cb578063e4849b32146104e0578063f2fde38b1461050057600080fd5b8063d505accf14610430578063d864b84714610450578063da31d6401461046557600080fd5b8063a6f2ae3a116100c6578063a6f2ae3a146103ca578063a9059cbb146103d2578063b8959a8b146103f2578063d13830661461041057600080fd5b806395d89b411461038057806398d5fdca14610395578063a5d8b650146103aa57600080fd5b8063636f7def116101595780637ecebe00116101335780637ecebe00146102e657806384b0196e146103065780638da5cb5b1461032e57806391b7f5ed1461036057600080fd5b8063636f7def146102a957806370a08231146102b1578063715018a6146102d157600080fd5b806323b872dd1161019557806323b872dd146102365780632e1a7d4d14610256578063313ce567146102785780633644e5151461029457600080fd5b806306fdde03146101bc578063095ea7b3146101e757806318160ddd14610217575b600080fd5b3480156101c857600080fd5b506101d1610520565b6040516101de9190611aca565b60405180910390f35b3480156101f357600080fd5b50610207610202366004611b00565b6105b2565b60405190151581526020016101de565b34801561022357600080fd5b506002545b6040519081526020016101de565b34801561024257600080fd5b50610207610251366004611b2a565b6105cc565b34801561026257600080fd5b50610276610271366004611b66565b6105f0565b005b34801561028457600080fd5b50604051600081526020016101de565b3480156102a057600080fd5b50610228610680565b61027661068f565b3480156102bd57600080fd5b506102286102cc366004611b7f565b61086e565b3480156102dd57600080fd5b50610276610889565b3480156102f257600080fd5b50610228610301366004611b7f565b61089d565b34801561031257600080fd5b5061031b6108bb565b6040516101de9796959493929190611b9a565b34801561033a57600080fd5b506008546001600160a01b03165b6040516001600160a01b0390911681526020016101de565b34801561036c57600080fd5b5061027661037b366004611b66565b610901565b34801561038c57600080fd5b506101d161090e565b3480156103a157600080fd5b50600b54610228565b3480156103b657600080fd5b506102766103c5366004611b66565b61091d565b61027661092a565b3480156103de57600080fd5b506102076103ed366004611b00565b610d06565b3480156103fe57600080fd5b506014546001600160a01b0316610348565b34801561041c57600080fd5b5061027661042b366004611c49565b610d14565b34801561043c57600080fd5b5061027661044b366004611cfa565b610d28565b34801561045c57600080fd5b506101d1610e62565b34801561047157600080fd5b50610276610480366004611b7f565b610e71565b34801561049157600080fd5b506102286104a0366004611d6d565b6001600160a01b03918216600090815260016020908152604080832093909416825291909152205490565b3480156104d757600080fd5b50600c54610228565b3480156104ec57600080fd5b506102766104fb366004611b66565b610e9b565b34801561050c57600080fd5b5061027661051b366004611b7f565b610ea8565b60606003805461052f90611da0565b80601f016020809104026020016040519081016040528092919081815260200182805461055b90611da0565b80156105a85780601f1061057d576101008083540402835291602001916105a8565b820191906000526020600020905b81548152906001019060200180831161058b57829003601f168201915b5050505050905090565b6000336105c0818585610ee3565b60019150505b92915050565b6000336105da858285610ef0565b6105e5858585610f68565b506001949350505050565b6105f8610fc7565b804710156106425760405162461bcd60e51b8152602060048201526012602482015271496e73756666696369656e742066756e647360701b60448201526064015b60405180910390fd5b6008546040516001600160a01b039091169082156108fc029083906000818181858888f1935050505015801561067c573d6000803e3d6000fd5b5050565b600061068a610ff4565b905090565b610697610fc7565b600068b4ceb975c5301b0000600b546002546106b39190611df0565b6106c590670de0b6b3a7640000611df0565b6106cf9190611e07565b9050600068056bc75e2d631000008260105468056bc75e2d631000006106f59190611e29565b6106ff9190611df0565b6107099190611e07565b9050600c5442116107825760405162461bcd60e51b815260206004820152603d60248201527f596f75206e65656420746f207761697420756e74696c2074686520647565206460448201527f61746520746f20657863656375746520746869732066756e6374696f6e0000006064820152608401610639565b804710156107e95760405162461bcd60e51b815260206004820152602e60248201527f4e6f7420656e6f7567682066756e647320746f206578656375746520696e766560448201526d73746d656e742072657475726e7360901b6064820152608401610639565b60005b60125463ffffffff82161461086957600060128263ffffffff168154811061081657610816611e3c565b6000918252602090912001546001600160a01b031690506108368161086e565b6000036108435750610857565b610855816108508361086e565b61111f565b505b8061086181611e52565b9150506107ec565b505050565b6001600160a01b031660009081526020819052604090205490565b610891610fc7565b61089b60006113e2565b565b6001600160a01b0381166000908152600760205260408120546105c6565b6000606080600080600060606108cf611434565b6108d7611461565b60408051600080825260208201909252600f60f81b9b939a50919850469750309650945092509050565b610909610fc7565b600b55565b60606004805461052f90611da0565b610925610fc7565b600c55565b6000600b54670de0b6b3a76400006109429190611df0565b61095568b4ceb975c5301b000034611df0565b61095f9190611e07565b9050600081116109c75760405162461bcd60e51b815260206004820152602d60248201527f496e73756666696369656e742045544820616d6f756e7420746f20627579206160448201526c1039b4b733b632903a37b5b2b760991b6064820152608401610639565b6011546109d33361086e565b6109dd9083611e75565b1015610a515760405162461bcd60e51b815260206004820152603b60248201527f496e73756666696369656e742045544820616d6f756e7420746f20627579207460448201527f6865206d696e696d756d20616d6f756e74206f6620746f6b656e7300000000006064820152608401610639565b6000610a5c60025490565b600954610a699190611e29565b905080821115610ad05760405162461bcd60e51b815260206004820152602c60248201527f496e73756666696369656e7420746f6b656e7320617661696c61626c652c207360448201526b0cadcc840d8cae6e6408aa8960a31b6064820152608401610639565b600c544210610b215760405162461bcd60e51b815260206004820152601860248201527f46756e6420686173206265656e207465726d696e6174656400000000000000006044820152606401610639565b610b2b338361148e565b6008546001600160a01b03166001600160a01b03166108fc68056bc75e2d6310000034600f5468056bc75e2d63100000610b659190611e29565b610b6f9190611df0565b610b799190611e07565b6040518115909202916000818181858888f19350505050158015610ba1573d6000803e3d6000fd5b50600068b4ceb975c5301b0000600b54610bbb9085611df0565b610bcd90670de0b6b3a7640000611df0565b610bd79190611e07565b610be19034611e29565b90508015610c1857604051339082156108fc029083906000818181858888f19350505050158015610c16573d6000803e3d6000fd5b505b82610c223361086e565b03610869576014546040513360248201526000916001600160a01b03169060440160408051601f198184030181529181526020820180516001600160e01b03166340d097c360e01b17905251610c789190611e88565b6000604051808303816000865af19150503d8060008114610cb5576040519150601f19603f3d011682016040523d82523d6000602084013e610cba565b606091505b5050905080610d005760405162461bcd60e51b8152602060048201526012602482015271139195081b5a5b9d1a5b99c819985a5b195960721b6044820152606401610639565b50505050565b6000336105c0818585610f68565b610d1c610fc7565b601361067c8282611ef4565b83421115610d4c5760405163313c898160e11b815260048101859052602401610639565b60007f6e71edae12b1b97f4d1f60370fef10105fa2faae0126114a169c64845d6126c9888888610d998c6001600160a01b0316600090815260076020526040902080546001810190915590565b6040805160208101969096526001600160a01b0394851690860152929091166060840152608083015260a082015260c0810186905260e0016040516020818303038152906040528051906020012090506000610df4826114c4565b90506000610e04828787876114f1565b9050896001600160a01b0316816001600160a01b031614610e4b576040516325c0072360e11b81526001600160a01b0380831660048301528b166024820152604401610639565b610e568a8a8a610ee3565b50505050505050505050565b60606013805461052f90611da0565b610e79610fc7565b601480546001600160a01b0319166001600160a01b0392909216919091179055565b610ea5338261111f565b50565b610eb0610fc7565b6001600160a01b038116610eda57604051631e4fbdf760e01b815260006004820152602401610639565b610ea5816113e2565b610869838383600161151f565b6001600160a01b038381166000908152600160209081526040808320938616835292905220546000198114610d005781811015610f5957604051637dc7a0d960e11b81526001600160a01b03841660048201526024810182905260448101839052606401610639565b610d008484848403600061151f565b6001600160a01b038316610f9257604051634b637e8f60e11b815260006004820152602401610639565b6001600160a01b038216610fbc5760405163ec442f0560e01b815260006004820152602401610639565b6108698383836115f4565b6008546001600160a01b0316331461089b5760405163118cdaa760e01b8152336004820152602401610639565b6000306001600160a01b037f00000000000000000000000000000000000000000000000000000000000000001614801561104d57507f000000000000000000000000000000000000000000000000000000000000000046145b1561107757507f000000000000000000000000000000000000000000000000000000000000000090565b61068a604080517f8b73c3c69bb8fe3d512ecc4cf759cc79239f7b179b0ffacaa9a75d522b39400f60208201527f0000000000000000000000000000000000000000000000000000000000000000918101919091527f000000000000000000000000000000000000000000000000000000000000000060608201524660808201523060a082015260009060c00160405160208183030381529060405280519060200120905090565b600081116111665760405162461bcd60e51b8152602060048201526014602482015273125b9d985b1a59081d1bdad95b88185b5bdd5b9d60621b6044820152606401610639565b806111708361086e565b10156111ca5760405162461bcd60e51b815260206004820152602360248201527f496e73756666696369656e7420746f6b656e7320696e20796f75722062616c616044820152626e636560e81b6064820152608401610639565b6000600c544210156112085768056bc75e2d63100000600e54600b54846111f19190611df0565b6111fb9190611df0565b6112059190611e07565b90505b6000600a54600b5411156112345782600a54600b546112279190611e29565b6112319190611df0565b90505b600068056bc75e2d631000006010548361124e9190611df0565b6112589190611e07565b905060008184600b548761126c9190611df0565b6112769190611e29565b6112809190611e29565b9050600068b4ceb975c5301b00006112a083670de0b6b3a7640000611df0565b6112aa9190611e07565b9050804710156113225760405162461bcd60e51b815260206004820152603f60248201527f54686572652773206e6f7420656e6f7567682066756e647320696e207468652060448201527f636f6e747261637420746f20706179207468652062656e6566696369617279006064820152608401610639565b600081116113985760405162461bcd60e51b815260206004820152603d60248201527f54686572652773206e6f7468696e67206c65667420666f7220796f75206d792060448201527f667269656e642c20626574746572206c75636b206e6578742074696d650000006064820152608401610639565b6113a28787611680565b6040516001600160a01b0388169082156108fc029083906000818181858888f193505050501580156113d8573d6000803e3d6000fd5b5050505050505050565b600880546001600160a01b038381166001600160a01b0319831681179093556040519116919082907f8be0079c531659141344cd1fd0a4f28419497f9722a3daafe3b4186f6b6457e090600090a35050565b606061068a7f000000000000000000000000000000000000000000000000000000000000000060056116b6565b606061068a7f000000000000000000000000000000000000000000000000000000000000000060066116b6565b6001600160a01b0382166114b85760405163ec442f0560e01b815260006004820152602401610639565b61067c600083836115f4565b60006105c66114d1610ff4565b8360405161190160f01b8152600281019290925260228201526042902090565b60008060008061150388888888611761565b9250925092506115138282611830565b50909695505050505050565b6001600160a01b0384166115495760405163e602df0560e01b815260006004820152602401610639565b6001600160a01b03831661157357604051634a1406b160e11b815260006004820152602401610639565b6001600160a01b0380851660009081526001602090815260408083209387168352929052208290558015610d0057826001600160a01b0316846001600160a01b03167f8c5be1e5ebec7d5bd14f71427d1e84f3dd0314c0f7b2291e5b200ac8c7c3b925846040516115e691815260200190565b60405180910390a350505050565b6000806116008461086e565b11905061160e8484846118e9565b60008061161a8561086e565b119050811580156116285750805b1561167957601280546001810182556000919091527fbb8a6a4669ba250d26cd7a459eca9d215f8307e33aebe50379bc5a3617ec34440180546001600160a01b0319166001600160a01b0386161790555b5050505050565b6001600160a01b0382166116aa57604051634b637e8f60e11b815260006004820152602401610639565b61067c826000836115f4565b606060ff83146116d0576116c983611a13565b90506105c6565b8180546116dc90611da0565b80601f016020809104026020016040519081016040528092919081815260200182805461170890611da0565b80156117555780601f1061172a57610100808354040283529160200191611755565b820191906000526020600020905b81548152906001019060200180831161173857829003601f168201915b505050505090506105c6565b600080807f7fffffffffffffffffffffffffffffff5d576e7357a4501ddfe92f46681b20a084111561179c5750600091506003905082611826565b604080516000808252602082018084528a905260ff891692820192909252606081018790526080810186905260019060a0016020604051602081039080840390855afa1580156117f0573d6000803e3d6000fd5b5050604051601f1901519150506001600160a01b03811661181c57506000925060019150829050611826565b9250600091508190505b9450945094915050565b600082600381111561184457611844611fb4565b0361184d575050565b600182600381111561186157611861611fb4565b0361187f5760405163f645eedf60e01b815260040160405180910390fd5b600282600381111561189357611893611fb4565b036118b45760405163fce698f760e01b815260048101829052602401610639565b60038260038111156118c8576118c8611fb4565b0361067c576040516335e2f38360e21b815260048101829052602401610639565b6001600160a01b0383166119145780600260008282546119099190611e75565b909155506119869050565b6001600160a01b038316600090815260208190526040902054818110156119675760405163391434e360e21b81526001600160a01b03851660048201526024810182905260448101839052606401610639565b6001600160a01b03841660009081526020819052604090209082900390555b6001600160a01b0382166119a2576002805482900390556119c1565b6001600160a01b03821660009081526020819052604090208054820190555b816001600160a01b0316836001600160a01b03167fddf252ad1be2c89b69c2b068fc378daa952ba7f163c4a11628f55a4df523b3ef83604051611a0691815260200190565b60405180910390a3505050565b60606000611a2083611a52565b604080516020808252818301909252919250600091906020820181803683375050509182525060208101929092525090565b600060ff8216601f8111156105c657604051632cd44ac360e21b815260040160405180910390fd5b60005b83811015611a95578181015183820152602001611a7d565b50506000910152565b60008151808452611ab6816020860160208601611a7a565b601f01601f19169290920160200192915050565b602081526000611add6020830184611a9e565b9392505050565b80356001600160a01b0381168114611afb57600080fd5b919050565b60008060408385031215611b1357600080fd5b611b1c83611ae4565b946020939093013593505050565b600080600060608486031215611b3f57600080fd5b611b4884611ae4565b9250611b5660208501611ae4565b9150604084013590509250925092565b600060208284031215611b7857600080fd5b5035919050565b600060208284031215611b9157600080fd5b611add82611ae4565b60ff60f81b881681526000602060e06020840152611bbb60e084018a611a9e565b8381036040850152611bcd818a611a9e565b606085018990526001600160a01b038816608086015260a0850187905284810360c08601528551808252602080880193509091019060005b81811015611c2157835183529284019291840191600101611c05565b50909c9b505050505050505050505050565b634e487b7160e01b600052604160045260246000fd5b600060208284031215611c5b57600080fd5b813567ffffffffffffffff80821115611c7357600080fd5b818401915084601f830112611c8757600080fd5b813581811115611c9957611c99611c33565b604051601f8201601f19908116603f01168101908382118183101715611cc157611cc1611c33565b81604052828152876020848701011115611cda57600080fd5b826020860160208301376000928101602001929092525095945050505050565b600080600080600080600060e0888a031215611d1557600080fd5b611d1e88611ae4565b9650611d2c60208901611ae4565b95506040880135945060608801359350608088013560ff81168114611d5057600080fd5b9699959850939692959460a0840135945060c09093013592915050565b60008060408385031215611d8057600080fd5b611d8983611ae4565b9150611d9760208401611ae4565b90509250929050565b600181811c90821680611db457607f821691505b602082108103611dd457634e487b7160e01b600052602260045260246000fd5b50919050565b634e487b7160e01b600052601160045260246000fd5b80820281158282048414176105c6576105c6611dda565b600082611e2457634e487b7160e01b600052601260045260246000fd5b500490565b818103818111156105c6576105c6611dda565b634e487b7160e01b600052603260045260246000fd5b600063ffffffff808316818103611e6b57611e6b611dda565b6001019392505050565b808201808211156105c6576105c6611dda565b60008251611e9a818460208701611a7a565b9190910192915050565b601f821115610869576000816000526020600020601f850160051c81016020861015611ecd5750805b601f850160051c820191505b81811015611eec57828155600101611ed9565b505050505050565b815167ffffffffffffffff811115611f0e57611f0e611c33565b611f2281611f1c8454611da0565b84611ea4565b602080601f831160018114611f575760008415611f3f5750858301515b600019600386901b1c1916600185901b178555611eec565b600085815260208120601f198616915b82811015611f8657888601518255948401946001909101908401611f67565b5085821015611fa45787850151600019600388901b60f8161c191681555b5050505050600190811b01905550565b634e487b7160e01b600052602160045260246000fdfea2646970667358221220e18d66c988f2256afa466ab5f274c8e495d990a5625d9eafc10b8bcefadade2e64736f6c63430008180033",
  "linkReferences": {},
  "deployedLinkReferences": {}
}